:020000040800F2
:10000000B8090020CD010008C50A00080909000848
:10001000890A000849030008A32000080000000026
:10002000000000000000000000000000310D00088A
:1000300025040008000000004D0B00084D0E0008CC
:10004000E7010008E7010008E7010008E7010008F0
:10005000E7010008E7010008270400082904000858
:100060002B0400082D040008B9040008E70100086B
:10007000E7010008E7010008E7010008E7010008C0
:10008000E7010008E7010008E7010008E7010008B0
:10009000E7010008E7010008E7010008E7010008A0
:1000A000E7010008E7010008E7010008E701000890
:1000B000E7010008E7010008E7010008E701000880
:1000C000E7010008E7010008E7010008E701000870
:1000D000E7010008111C0008651C00083D1D000810
:1000E000E7010008E7010008E7010008E701000850
:1000F000E7010008E7010008E7010008E701000840
:10010000E7010008E701000825120008E7010008E0
:10011000E7010008E7010008E5120008E701000810
:10012000E7010008E7010008E7010008E70100080F
:1001300000F002F800F03AF80AA090E8000C8244BF
:100140008344AAF10107DA4501D100F02FF8AFF29C
:10015000090EBAE80F0013F0010F18BFFB1A43F0A5
:10016000010318478C270000AC270000103A24BF79
:1001700078C878C1FAD8520724BF30C830C144BF0C
:1001800004680C607047000000230024002500264E
:10019000103A28BF78C1FBD8520728BF30C148BFEA
:1001A0000B6070471FB51FBD10B510BD00F031F8D2
:1001B0001146FFF7F7FF02F001F900F04FF803B422
:1001C000FFF7F2FF03BC00F057F800000948804732
:1001D00009480047FEE7FEE7FEE7FEE7FEE7FEE729
:1001E000FEE7FEE7FEE7FEE704480549054A064B41
:1001F00070470000510E000831010008B8030020CC
:10020000B8090020B8050020B805002070477047E5
:100210007047754600F02CF8AE4605006946534617
:1002200020F00700854618B020B5FFF7DDFFBDE8D8
:1002300020404FF000064FF000074FF000084FF04D
:10024000000B21F00701AC46ACE8C009ACE8C009DE
:10025000ACE8C009ACE8C0098D46704710B504464B
:10026000AFF300802046BDE81040FFF7A8BF0000B4
:10027000004870475803002001491820ABBEFEE734
:10028000260002007047000010B54FF420710E48A0
:1002900000F0B6FA4FF4A0710B4800F0AFFA41211C
:1002A0000A4801F068FA4121084801F066FA202165
:1002B000074800F0A5FA2021064800F0A1FA202105
:1002C000044800F09BFA10BD0010014000040040FB
:1002D000000C0140001801401FB504460121102008
:1002E00000F036FC4FF47A70ADF808004720ADF806
:1002F000040001A9134801F071FA0121114801F02D
:100300000FF8012211460F4801F07AF9012C03D1B0
:1003100001210C4801F00AF8012C03D00021094802
:1003200001F004F836208DF8000002208DF801005D
:100330008DF8020001208DF80300684600F0C4FB30
:100340001FBD00000010004000BFFEE710B50446CE
:10035000012C00D010BD3DE000F060FD17E04FF033
:1003600082412D48006802F091F900D813E02B4833
:10037000008881B22A4801F000FA232001F0E6FF4C
:1003800000F090FC25480068401D2449086023487F
:1003900000689628E3DD00BF17E04FF082411E4859
:1003A000006802F073F900D813E01C48008881B29D
:1003B0001B4801F0E2F9232001F0C8FF00F072FCB5
:1003C00016480068401F1549086014480068002856
:1003D000E3DA00BF4FF082410F48006802F056FA9E
:1003E000BAD300F05FFC0D480068322801DC00F051
:1003F00087FC0A480068322805DD08480068642840
:1004000001DA00F01FF905480068642801DB00F0FC
:1004100023FB00BF9EE700002C00002024000020EA
:1004200000080040704770477047704710B50A4891
:100430000068401C084908602021084800F0E0F9E5
:10044000642001F083FF2021044800F0D7F9082040
:1004500000F080F810BD00001C000020000C0140DE
:100460000EB50121084600F093FB0321022000F0A5
:1004700011F90820019000208DF8080008208DF85F
:10048000090001A800F06CF80321022000F002F935
:100490000820019001A800F063F809208DF8000001
:1004A00002208DF801008DF8020001208DF8030074
:1004B000684600F009FB0EBD10B50F2001F046FFA5
:1004C00010210A4800F091F960B9C82001F03EFF00
:1004D0001021064800F089F920B905480068401C41
:1004E00003490860102000F035F810BD00180140E5
:1004F000200000200EB500F009FA0121084600F0A6
:1005000047FB0321042000F0C5F8082001900020DB
:100510008DF808000C208DF8090001A800F020F8E3
:100520000421084600F0B6F81020019001A800F060
:1005300017F80A208DF8000002208DF80100002035
:100540008DF8020001208DF80300684600F0BCFA27
:100550000EBD00000149086070470000140401400E
:10056000002123498279002A3AD00A46126803689A
:100570009A430B461A600A1D126803689A430B1DC2
:100580001A60027911440A6803681A430A60184A1B
:100590000832126803689A43154B08331A601A1D13
:1005A000126803689A43124B0C331A604279102A7E
:1005B0000ED11A1F126803681A430D4B08331A60D4
:1005C0001A1D126803681A43094B0C331A600DE0B8
:1005D0000749427911440A6803681A430A6005E032
:1005E000027911440A6803689A430A607047000060
:1005F0000004014010B54FF4A0710E4800F000F95E
:100600004FF420710B4800F0F9F85A210A4801F024
:10061000B2F85A21084801F0B0F82021074800F04C
:10062000EFF82021064800F0EBF82021034800F005
:10063000E5F810BD0010014000040040000C01402E
:100640000018014010B54FF4A0710E4800F0D8F822
:100650004FF420710B4800F0D1F841210A4801F015
:100660008AF84121084801F088F82021074800F065
:10067000C7F82021064800F0C3F82021034800F005
:10068000BDF810BD0010014000040040000C014006
:100690000018014030B500228B071C0F0F2303FA0E
:1006A00004F20B4B8C1053F824309343084C8D10FC
:1006B00044F8253023468C1053F824308C07240F3F
:1006C00000FA04F42343024C8D1044F8253030BD69
:1006D000080001402DE9F0410246002500260020D7
:1006E00000230024002791F803C00CF00F0591F8B7
:1006F00003C00CF0100CBCF1000F03D091F802C045
:100700004CEA050591F800C0BCF1000F31D0146827
:1007100000202BE04FF0010C0CFA00F3B1F800C000
:100720000CEA03069E4220D183004FF00F0C0CFA16
:1007300003F7BC4305FA03FC4CEA040491F803C038
:10074000BCF1280F06D14FF0010C0CFA00FCC2F8E6
:1007500014C00AE091F803C0BCF1480F05D14FF076
:10076000010C0CFA00FCC2F810C0401C0828D1D3C0
:100770001460B1F800C0BCF1FF0F34DD54680020F4
:100780002EE000F1080C4FF0010808FA0CF3B1F864
:1007900000C00CEA03069E4221D183004FF00F0CEB
:1007A0000CFA03F7BC4305FA03FC4CEA040491F885
:1007B00003C0BCF1280F05D100F1080C08FA0CF8B1
:1007C000C2F8148091F803C0BCF1480F07D100F1C2
:1007D000080C4FF0010808FA0CF8C2F81080401C11
:1007E0000828CED35460BDE8F0810246002093680B
:1007F0000B400BB1012000E00020704741617047C1
:100800000161704700B589B001210C2000F0C0F9EA
:100810000121082000F09CF94FF48070ADF8200011
:1008200003208DF8220010208DF8230008A92A4803
:10083000FFF750FF0220ADF8200028208DF823009C
:1008400008A92648FFF746FF02212448FFF7D6FFF4
:10085000234800F077FD4FF6FF70ADF818004720F1
:10086000ADF814000020ADF81A00ADF8160005A987
:100870001B4800F0B3FF0420ADF808000020ADF8DD
:100880000A000120ADF80C000020ADF80E00ADF814
:10089000100002A9124800F05DFE0121104800F08E
:1008A0003FFD012205210E4800F0AAFE01210C485F
:1008B00000F03CFD32208DF8040002208DF8050088
:1008C00000208DF8060001208DF8070001A800F037
:1008D000FBF809B000BD0000000C01400008014019
:1008E000000C004010B54FF480710648FFF788FFF8
:1008F000142001F047FD4FF480710248FFF77EFF9E
:1009000010BD0000000C014000BFFEE708B501214A
:10091000442000F03DF91C20ADF8000048208DF87F
:10092000030069460648FFF7D5FE0120ADF8000038
:1009300028208DF8030069460248FFF7CBFE08BD6A
:10094000001801400008014010B5044614B1012010
:100950002C4908702B480078002837D010212A48ED
:10096000FFF743FF78B108212748FFF73EFF50B15A
:1009700004212548FFF739FF28B101212348FFF75B
:1009800034FF012822D10A2001F0E0FC00201D499B
:10099000087010211C48FFF728FF08B9012010BD7E
:1009A00008211948FFF721FF08B90220F7E70421C1
:1009B0001548FFF71AFF08B90320F0E70121134893
:1009C000FFF713FF01281BD10420E8E710210E4890
:1009D000FFF70BFF012813D108210B48FFF705FF94
:1009E00001280DD104210848FFF7FFFE012807D197
:1009F00001210648FFF7F9FE10B9012001490870EE
:100A00000020CCE71400002000180140000801403D
:100A100008B50121482000F0BBF86020ADF80000C7
:100A200001208DF8020010208DF803006946084867
:100A3000FFF750FE69460748FFF74CFE20210448A7
:100A4000FFF7DEFE20210348FFF7DAFE08BD0000B5
:100A5000000C01400018014010B54FF4C071084867
:100A6000FFF7CEFE4FF410710548FFF7C7FE462191
:100A7000044800F080FE4121024800F07EFE10BDD7
:100A8000001001400004004000BFFEE708B501214E
:100A9000102000F07DF84FF47070ADF800001020C9
:100AA0008DF8030003208DF8020069460448FFF723
:100AB00011FE4FF470710248FFF7A0FE08BD000060
:100AC000001001407047000070B5002100230F2284
:100AD000C47804B3154C246804F4E064C4F5E064FD
:100AE000210AC1F10403CA40447804FA03F184786E
:100AF0001440214309010E4C0678A155047804F0F6
:100B00001F050124AC4005786D11AD0005F1E0250D
:100B1000C5F8004109E0047804F01F050124AC4049
:100B2000044D0678761145F8264070BD0CED00E0C6
:100B300000E400E080E100E002490143024A116064
:100B4000704700000000FA050CED00E0704700005F
:100B500029B1064AD2690243044BDA6104E0034A30
:100B6000D2698243014BDA617047000000100240F5
:100B700029B1064A12690243044B1A6104E0034A90
:100B800012698243014B1A61704700000010024055
:100B900029B1064A92690243044B9A6104E0034A70
:100BA00092698243014B9A61704700000010024035
:100BB00029B1064AD2680243044BDA6004E0034AD2
:100BC000D2688243014BDA60704700000010024097
:100BD00030B500210022002400232D4D6D6805F062
:100BE0000C0121B1042905D0082923D105E0294DA4
:100BF000056022E0274D05601FE0254D6D6805F476
:100C00007012234D6D6805F48034022505EB924285
:100C10001CB9214D554305600BE01D4D6D6805F471
:100C200000351DB11C4D5543056002E0194D55437B
:100C3000056002E0174D056000BF00BF144D6D68F0
:100C400005F0F0010909154D6B5C0568DD40456054
:100C50000F4D6D6805F4E061090A104D6B5C456845
:100C6000DD4085600A4D6D6805F46051C90A0B4D81
:100C70006B5C4568DD40C560054D6D6805F440411D
:100C8000890B074D6B5CC568B5FBF3F5056130BD9D
:100C90000010024000127A0000093D000000002010
:100CA0001000002070B54FF4AF7001F04FFB0F48FB
:100CB000007800F08000A0B10C48007800F03F04FC
:100CC00024040B4800880444204601F0CBFC06466F
:100CD000084901F00FFD0546074901F001FC0749ED
:100CE000086000200149088070BD00002800002035
:100CF0002A00002000002A4300401C462C0000204F
:100D000010B54FF410710848FFF77AFD4FF4C07129
:100D10000548FFF773FD4121044800F02CFD4621F2
:100D2000024800F02AFD10BD001001400004004000
:100D3000704710B500F002F810BD00000CB500209F
:100D4000019000903348006840F4803031490860D9
:100D500000BF3048006800F4003000900198401C4B
:100D60000190009818B90198B0F5A06FF1D1294809
:100D7000006800F4003010B10120009001E0002074
:100D800000900098012843D12348006840F01000EB
:100D9000214908600846006820F003000860084602
:100DA000006840F0020008601A484068194948602D
:100DB0000846406848600846406840F480604860E3
:100DC0000846406820F47C1048600846406840F4BB
:100DD000E81048600846006840F08070086000BF76
:100DE0000C48006800F000700028F9D009484068FD
:100DF00020F00300074948600846406840F00200C0
:100E0000486000BF0348406800F00C000828F9D192
:100E10000CBD0000001002400020024010B54FF44D
:100E200020710848FFF7EAFC4FF4A0710548FFF76E
:100E3000E5FC0021044800F09EFC0021024800F07F
:100E40009CFC10BD001001400004004070470000F1
:100E500010B51348006840F00100114908600846C9
:100E60004068104908400E494860084600680E492D
:100E700008400B4908600846006820F4802008609C
:100E80000846406820F4FE0048604FF41F00886068
:100E9000FFF74FFF4FF000600449086010BD0000ED
:100EA000001002400000FFF8FFFFF6FE08ED00E032
:100EB000F0B50C46154600220021068C4FF6FE7751
:100EC0003E400684028B018C4FF60C7632407E1C2D
:100ED00006EA03162E433243104EB0420ED0104E97
:100EE000B0420BD0B0F1804F08D00E4EB04205D0CA
:100EF0000D4EB04202D00D4EB04206D14FF6FD76F7
:100F0000314044F00106314305E04FF6F5763140BB
:100F100044F00106314302830184F0BD002C0140FE
:100F2000003401400004004000080040000C004074
:100F3000F0B50C461546002200210026078C4FF61E
:100F4000EF7C07EA0C070784028B018C4FF6FF77D2
:100F500007EA041640F6FF473A404FF6FF7707EAE4
:100F600003373A434FF6FF7707EA05273A43114F15
:100F7000B8420ED0104FB8420BD0B0F1804F08D01D
:100F80000E4FB84205D00E4FB84202D00D4FB842B6
:100F900006D14FF6DF77394046F01007394305E0B8
:100FA0004FF65F77394044F01007394302830184DC
:100FB000F0BD0000002C014000340140000400405E
:100FC00000080040000C0040F0B50C461546002219
:100FD00000210026078C4FF6FF6C07EA0C070784F8
:100FE000828B018C4FF6FF7707EA04264FF60C77C9
:100FF0003A404FF6FF7707EA03172F433A43114F62
:10100000B8420ED0104FB8420BD0B0F1804F08D08C
:101010000E4FB84205D00E4FB84202D00D4FB84225
:1010200006D14FF6FF57394046F48077394305E043
:101030004FF2FF57394044F480773943828301846B
:10104000F0BD0000002C01400034014000040040CD
:1010500000080040000C0040F0B50C461546002288
:1010600000210026078C4EF6FF7C07EA0C07078458
:10107000828B018C4FF6FF7707EA043640F6FF4774
:101080003A404FF6FF7707EA05273A434FF6FF77D6
:1010900007EA03373A43114FB8420ED0104FB84217
:1010A0000BD0B0F1804F08D00E4FB84205D00E4F94
:1010B000B84202D00D4FB84206D14DF6FF77394005
:1010C00046F48057394305E047F6FF57394044F46A
:1010D0008057394382830184F0BD0000002C014019
:1010E000003401400004004000080040000C0040B3
:1010F00030B589B005460C4601210920FFF748FDAF
:1011000001210220FFF724FD0320ADF82000182064
:101110008DF8230003208DF8220008A91A48FFF754
:10112000D9FA1A4800F00EF9681E80B2ADF818001E
:10113000601E80B2ADF814000020ADF81A00ADF8C2
:10114000160005A9114800F049FB6020ADF8040025
:101150000120ADF806000020ADF80C0001A90B48F5
:1011600000F064FA01A9094800F0BAFA082107481A
:1011700000F0ACFA0821054800F0F0FA012103481C
:1011800000F0D4F809B030BD000C0140000400406C
:1011900030B589B005460C4601210920FFF7F8FC5F
:1011A00001210420FFF7D4FC4FF40070ADF82000BB
:1011B00018208DF8230003208DF8220008A9174875
:1011C000FFF788FA164800F0BDF8681E80B2ADF847
:1011D0001800601E80B2ADF814000020ADF81A00AF
:1011E000ADF8160005A90E4800F0F8FA6020ADF839
:1011F00004000120ADF806000020ADF80C0001A9A4
:10120000074800F06DFA0821054800F0A7FA01210F
:10121000034800F08BF809B030BD0000000C01401D
:101220000008004010B52C48007800F0800000282D
:101230004CD10121294800F07CF9D0B12648007832
:1012400000F04000A8B12448007800F03F003F289B
:101250000AD12148008840F080001F4908804FF6DD
:10126000FF701F49088004E01B480088401C1A4991
:1012700008800421194800F05CF938B3164800785A
:1012800000F0400078B11448008840F08000124916
:101290000880124800F04AF91149088000210F48DF
:1012A00000F0B7F912E000200B4908800C490880D3
:1012B00000210A4800F064FA0748008840F0400026
:1012C000054908800221054800F0A3F905210348DB
:1012D00000F029F810BD000028000020000C00409C
:1012E0002A00002010B501210B4800F022F940B17E
:1012F0000A480068401C094908600121064800F0BE
:1013000012F806480068B0F5487F04D1FFF7EAFA02
:1013100000200249086010BD00100040300000208D
:10132000CA4302827047CA430282704721B10288D1
:1013300042F00102028004E002884FF6FE731A4078
:101340000280704710B504466848844208D10121E4
:10135000C014FFF72DFC0021E014FFF729FCC4E0C6
:10136000B4F1804F08D101210846FFF701FC0021AC
:101370000120FFF7FDFBB8E05D48844208D1012160
:101380000220FFF7F5FB00210220FFF7F1FBACE0A4
:101390005848844208D101210420FFF7E9FB0021CD
:1013A0000420FFF7E5FBA0E05348844208D1012167
:1013B0000820FFF7DDFB00210820FFF7D9FB94E0B0
:1013C0004E48844208D101211020FFF7D1FB0021B3
:1013D0001020FFF7CDFB88E04948844208D1012165
:1013E0002020FFF7C5FB00212020FFF7C1FB7CE098
:1013F0004448844208D101214014FFF7D9FB002161
:101400006014FFF7D5FB70E03F48844209D1012109
:10141000C804FFF7CDFB00214FF40020FFF7C8FB05
:1014200063E03A48844209D101210805FFF7C0FB77
:1014300000214FF48010FFF7BBFB56E03448844294
:1014400009D101214805FFF7B3FB00214FF400103B
:10145000FFF7AEFB49E02F48844208D1012140202C
:10146000FFF786FB00214020FFF782FB3DE02A4882
:10147000844208D101218020FFF77AFB00218020DF
:10148000FFF776FB31E02548844208D10121801521
:10149000FFF76EFB0021A015FFF76AFB25E020484F
:1014A000844209D101210804FFF782FB00214FF497
:1014B0008030FFF77DFB18E01A48844209D10121F2
:1014C0004804FFF775FB00214FF40030FFF770FB75
:1014D0000BE01548844208D101218804FFF768FB1E
:1014E00000214FF48020FFF763FB10BD002C01406A
:1014F0000004004000080040000C004000100040C4
:101500000014004000340140004C014000500140F4
:101510000054014000180040001C00400020004022
:101520000040014000440140004801400146088F4E
:10153000704730B50246002000230024158A05EAD2
:101540000103958905EA010413B10CB1012000E003
:10155000002030BD70B505460C46244885420ED0AB
:10156000234885420BD0B5F1804F08D021488542F1
:1015700005D02148854202D02048854200D100E0B4
:1015800000BF208850B92389A28861882846FFF7C8
:101590008FFCE188284600F0F5F825E02088042833
:1015A0000AD12389A28861882846FFF7C1FCE18817
:1015B000284600F0F0F817E0208808280AD123898F
:1015C000A28861882846FFF7FFFCE188284600F0E2
:1015D000EFF809E02389A28861882846FFF73CFDDF
:1015E000E188284600F0EDF870BD0000002C0140B5
:1015F000003401400004004000080040000C00409E
:101600001AB183890B43838102E083898B438381F1
:1016100070470A460021018C4FF6DF7319404FF6E0
:10162000FF7303EA021319430184704770B5002465
:1016300000220023058C4FF6FF6635400584028C9E
:101640008388848B4FF68F752C404FF6FC752C40A9
:101650000D882C434FF6FF552A400D894FF6FF7633
:1016600006EA05252A434D8806EA05252A43154D35
:10167000A84202D0144DA8421DD14FF2FF752A4056
:101680004D894FF6FF7606EA05252A434FF6FF35CA
:101690002A408D8806EA05252A434EF6FF752B4021
:1016A0004DF6FF752B408D8906EA05152B43CD8934
:1016B00006EA05152B4383808483CD8885870284C1
:1016C00070BD0000002C0140003401400A4600219A
:1016D000818B4FF6F77319401143818370470000E7
:1016E00070B5002200230024058C4EF6FF763540AD
:1016F0000584038C8488828B48F6FF752A404FF658
:10170000FF452A400D884FF6FF7606EA05252A4355
:101710004DF6FF752B400D8906EA05352B434D88A4
:1017200006EA05352B430B4DA84202D00A4DA842CC
:1017300008D14BF6FF752C408D894FF6FF7606EAEF
:1017400085152C4384808283CD88A0F84050038483
:1017500070BD0000002C0140003401400A46002109
:10176000818B4FF2FF7319404FF6FF7303EA022398
:1017700019438183704781877047A0F840107047F4
:1017800081847047028B4FF6F3731A400283028BF9
:101790000A4302837047028B4FF2FF331A400283E1
:1017A000028B4FF6FF7303EA01231A43028370474B
:1017B000828B4FF6F3731A408283828B0A438283B3
:1017C0007047828B4FF2FF331A408283828B4FF631
:1017D000FF7303EA01231A438283704700220288C1
:1017E0001D4B98420ED01D4B98420BD0B0F1804F4C
:1017F00008D01B4B984205D01A4B984202D01A4B86
:10180000984204D14FF68F731A404B881A43174BF6
:10181000984207D0164B984204D04FF6FF431A4027
:10182000CB881A4302808B8883850B8803850A4BFB
:1018300098420BD0094B984208D00E4B984205D0E5
:101840000D4B984202D00D4B984201D10B7A038682
:101850000123838270470000002C014000340140C6
:101860000004004000080040000C00400010004050
:101870000014004000400140004401400048014085
:1018800010B5044600F03EF809281ED2DFE800F04B
:101890001D05080B0E1114171A00FEF7D3FE14E0F5
:1018A000FFF7BCFA11E0FFF72BFA0EE0FFF728FA7A
:1018B0000BE0FFF725FA08E0FFF7CEF805E0FFF7A9
:1018C000CBF802E0FFF7C8F800BF00BF10BD000072
:1018D00008B501212020FFF75BF901218020FFF7E7
:1018E00057F97820ADF8000003208DF80200482059
:1018F0008DF8030069460248FEF7ECFE08BD0000C3
:10190000000C014010B500240821C048FEF76DFF0F
:10191000012813D11021BD48FEF767FF01280DD122
:101920002021BA48FEF761FF012807D14021B748BE
:10193000FEF75BFF012801D1012464E10821B348CF
:10194000FEF753FF80B91021B048FEF74EFF58B99B
:101950002021AE48FEF749FF30B94021AB48FEF7E1
:1019600044FF08B902244EE14021A848FEF73DFF9C
:1019700098B92021A548FEF738FF01280DD1102184
:10198000A248FEF732FF012807D108219F48FEF741
:101990002CFF012801D1062435E108219B48FEF7E0
:1019A00024FF012812D110219848FEF71EFF68B9C4
:1019B00020219648FEF719FF012807D140219348BE
:1019C000FEF713FF012801D101241CE108218F48F3
:1019D000FEF70BFF012812D110218C48FEF705FFFE
:1019E00001280CD120218948FEF7FFFE38B940219B
:1019F0008648FEF7FAFE012801D1012403E10821FF
:101A00008248FEF7F2FE012812D110217F48FEF72E
:101A1000ECFE01280CD120217C48FEF7E6FE0128CF
:101A200006D140217948FEF7E0FE08B90324EAE038
:101A300008217648FEF7D9FE012810D110217348FD
:101A4000FEF7D3FE58B920217048FEF7CEFE30B91C
:101A500040216E48FEF7C9FE08B90424D3E00821EE
:101A60006A48FEF7C2FE88B910216848FEF7BDFE3D
:101A700001280BD120216548FEF7B7FE30B940217F
:101A80006248FEF7B2FE08B90124BCE008215F48B5
:101A9000FEF7ABFE88B910215C48FEF7A6FE60B9E0
:101AA00020215A48FEF7A1FE012806D140215748BF
:101AB000FEF79BFE08B90124A5E008215348FEF774
:101AC00094FE88B910215148FEF78FFE60B920219D
:101AD0004E48FEF78AFE38B940214C48FEF785FE95
:101AE000012801D107248EE008214848FEF77DFE39
:101AF00090B910214548FEF778FE01280CD120212D
:101B00004248FEF772FE38B940214048FEF76DFEAC
:101B1000012801D1012476E008213C48FEF765FE4A
:101B200090B910213948FEF760FE01280CD1202120
:101B30003648FEF75AFE012806D140213348FEF709
:101B400054FE08B901245EE008213048FEF74DFE3E
:101B5000012811D110212D48FEF747FE60B9202140
:101B60002A48FEF742FE38B940212848FEF73DFEDC
:101B7000012801D1012446E008212448FEF735FE62
:101B8000012811D110212148FEF72FFE60B9202134
:101B90001E48FEF72AFE012806D140211B48FEF709
:101BA00024FE08B901242EE008211848FEF71DFE86
:101BB000012811D110211548FEF717FE01280BD17D
:101BC00020211248FEF711FE30B940210F48FEF7E0
:101BD0000CFE08B9052416E008210C48FEF705FEA6
:101BE00088B910210948FEF700FE60B92021074896
:101BF000FEF7FBFD012806D140210448FEF7F5FD64
:101C0000012800D10824204610BD00000014014026
:101C100010B540F22551124800F07FF9F8B1104894
:101C200000F036FAC4B221460D4800F036FA302CE6
:101C300002D1FFF7F3F812E0312C02D1FEF7DAFC03
:101C40000DE0322C02D1FEF71FFB08E0332C02D14D
:101C5000FEF702FF03E0342C01D1FFF751F810BD6D
:101C60000038014070B540F225512F4800F055F979
:101C7000002857D02C4800F00BFAC5B22B4800883A
:101C800000F4004058BB2948008800F4804060B14F
:101C90000A2D03D000202549088020E02348008831
:101CA00040F400402149088019E00D2D06D11F485D
:101CB000008840F480401D49088010E01B480088DF
:101CC000C0F30D001A490D5418480088401C1749EC
:101CD000088008460088C72801DD002008801348D6
:101CE000008800F40040E0B110480088C0F30D0601
:101CF000002411E00E48015D0E4800F0CEF900BF4F
:101D00004021094800F0FCF80128F9D10848005D9D
:101D100009490855601CC4B2B442EBDB00200349FA
:101D2000088000BF70BD0000004400401800002083
:101D3000C8010020004800409002002070B540F229
:101D40002551394800F0E9F800286BD0364800F0FA
:101D50009FF9C4B23548008800F4004058BB3348AE
:101D6000008800F4804060B10A2C03D000202F4985
:101D7000088020E02D48008840F400402B4908806E
:101D800019E00D2C06D12948008840F480402749ED
:101D9000088010E025480088C0F30D0024490C5449
:101DA00022480088401C2149088008460088C7282E
:101DB00001DD002008801D48008800F4004080B349
:101DC0001A480088C0F30D05002005E01849095C99
:101DD000184A1154411CC8B2A842F7DB15480078D4
:101DE000412806D113484078412802D1FEF72AFC49
:101DF00014E010480078422806D10E484078422866
:101E000002D1FEF7F7FB09E00A480078452805D122
:101E100008484078452801D1FFF700F80020034921
:101E2000088000BF70BD0000004800401600002080
:101E3000380000200001002001F40072B2F5007F9C
:101E400000D100BFCA430280704721B1828942F4A9
:101E50000052828104E082894DF6FF731A4082812C
:101E60007047000010B504462048844209D1012182
:101E70008803FEF79DFE00214FF48040FEF798FE98
:101E800032E01B48844209D101214804FEF770FE6C
:101E900000214FF40030FEF76BFE25E01548844228
:101EA00009D101218804FEF763FE00214FF4802050
:101EB000FEF75EFE18E01048844209D10121C804F3
:101EC000FEF756FE00214FF40020FEF751FE0BE016
:101ED0000A48844208D101210805FEF749FE002185
:101EE0004FF48010FEF744FE10BD000000380140A2
:101EF0000044004000480040004C004000500040BA
:101F000002460020B1F5007F00D100BF13880B40CE
:101F10000BB1012000E00020704770B5024600249C
:101F200000230025002040F66A16B14200D100BF10
:101F3000C1F3421501F01F03012606FA03F3012D38
:101F400002D19689334006E0022D02D1168A334031
:101F500001E0968A33400C12012606FA04F4168832
:101F6000344013B10CB1012000E0002070BDF0B589
:101F70000346002400260025002040F66A17B942D7
:101F800000D100BF1846C1F3421401F01F0601271B
:101F900007FA06F5012C01D10C3004E0022C01D126
:101FA000103000E014301AB107682F43076002E0D8
:101FB0000768AF430760F0BD2DE9F04786B00546DE
:101FC0000E460024A24600BFA1460027B08900B1FA
:101FD00000BF2F462C8A4CF6FF700440F088044363
:101FE0002C82AC894EF6F3100440B0883189084346
:101FF000718908430443AC81AC8A4FF6FF4004402A
:10200000B0890443AC8201A8FEF7E2FD1F48874275
:1020100002D1DDF810A001E0DDF80CA0A88900F4E1
:10202000004040B10AEBCA0000EB0A1031684900D9
:10203000B0FBF1F807E00AEBCA0000EB0A103168C8
:102040008900B0FBF1F86420B8FBF0F0040120092E
:10205000642101FB1089A88900F4004040B13220BE
:1020600000EBC900B0FBF1F000F00700044308E00A
:10207000322000EB09106421B0FBF1F000F00F00FA
:1020800004432C8106B0BDE8F08700000038014011
:1020900001468888C0F308007047C1F308028280B7
:1020A000704700BFFEE7000030B587B005460C461C
:1020B00001210420FEF76CFD01218803FEF768FD75
:1020C00001210846FEF764FD2A48FFF7CBFE4FF4D6
:1020D0000070ADF8180003208DF81A0018208DF854
:1020E0001B0006A92448FEF7F5FA4FF48060ADF80E
:1020F000180004208DF81B0006A91F48FEF7EAFA15
:1021000002950020ADF80C00ADF80E00ADF81000FF
:10211000ADF814000C20ADF8120002A91548FFF725
:102120004BFF012240F225511248FFF720FF4021CA
:102130001048FFF781FE4FF4A060FEF7FDFC25205C
:102140008DF8040002208DF8050000208DF80600AF
:102150001CB101208DF8070002E000208DF8070077
:1021600001A8FEF7B1FC01210248FFF76EFE07B09F
:1021700030BD0000003801400008014030B587B094
:1021800005460C4601210420FEF702FD012148040A
:10219000FEF7DEFC01210846FEF7FAFC2948FFF7AE
:1021A00061FE0420ADF8180003208DF81A001820F5
:1021B0008DF81B0006A92448FEF78CFA0820ADF81C
:1021C000180004208DF81B0006A91F48FEF782FAAC
:1021D00002950020ADF80C00ADF80E00ADF810002F
:1021E000ADF814000C20ADF8120002A91548FFF755
:1021F000E3FE012240F225511248FFF7B8FE4021CC
:102200001048FFF719FE4FF4A060FEF795FC26205A
:102210008DF8040002208DF8050000208DF80600DE
:102220001CB101208DF8070002E000208DF80700A6
:1022300001A8FEF749FC01210248FFF706FE07B09E
:1022400030BD0000004400400008014010B586B0D9
:10225000044601210820FEF79BFC01218804FEF7BB
:1022600077FC01210846FEF793FC2548FFF7FAFDAD
:102270004FF48060ADF8140003208DF8160018208C
:102280008DF8170005A91F48FEF724FA4FF40060E7
:10229000ADF8140004208DF8170005A91948FEF7C1
:1022A00019FA01940020ADF80800ADF80A00ADF865
:1022B0000C00ADF810000C20ADF80E0001A910487C
:1022C000FFF77AFE012240F225510D48FFF74FFE3D
:1022D00040210B48FFF7B0FD27208DF800000220B9
:1022E0008DF801008DF8020001208DF8030068468A
:1022F000FEF7EAFB01210248FFF7A7FD06B010BD7B
:1023000000480040000C014010B50446C4F1010033
:1023100028B100214FF41650FFF7C6FE04E001215A
:102320004FF41650FFF7C0FE10BD10B50446C4F1BF
:10233000010028B100214FF41650FFF71FFF04E001
:1023400001214FF41650FFF719FF10BD014642F26C
:1023500028324A434FF0E0235A6101221A610022D9
:102360009A6100BF4FF0E022106900F001021AB13B
:1023700000F48032002AF5D000224FF0E0231A61E9
:102380009A617047014601EBC1024FF0E0235A61A8
:1023900001221A6100229A6100BF4FF0E022106909
:1023A00000F001021AB100F48032002AF5D00022B8
:1023B0004FF0E0231A619A6170470000FEF7A6FA19
:1023C000FEF764FB4FF4A060FEF7B6FBFEF792F851
:1023D00000213948FFF7D1F94FF4B4614FF47A7016
:1023E000FEF7D6FEFEF73CF848216420FEF780FE9B
:1023F000FEF70EFB20213148FEF702FA202130487B
:10240000FEF7FEF957E00020FEF79EFA0446012C85
:102410000FD12C48006801280BD12A480068FFF72B
:1024200084FF20212648FEF7E9F920212348FEF702
:10243000E7F9012C1CD123480068022818D120217B
:102440001F48FEF7DDF920211C48FEF7D7F91D488B
:102450000068FFF759FFFFF73BFA07E00120FFF79D
:102460000FFA18480068022800D000E0F6E700BF25
:10247000012C17D113480068032813D120211048DC
:10248000FEF7BEF920210D48FEF7B8F9FEF7BAF9BC
:102490000120FDF721FF04E00120FDF757FFFEF7C3
:1024A00001FCF9E7022C06D10220FDF715FF4FF4DD
:1024B000E130FFF7CBFEA6E700080040000C01402A
:1024C0000018014020000020401058BFC0F14040DB
:1024D000491058BFC1F140418142EFF3008070477D
:1024E0004FF47F0C1CEAD0121EBF1CEAD11392EAF3
:1024F0000C0F93EA0C0F00F0858090EA010F48BFA3
:1025000042F4807240F4000C41F400002CF07F4152
:1025100020F07F4000B58142A2EB03020FF2081CBD
:10252000ACEB504EC0F100009EF800E04FEA4E0EBA
:1025300000FB0EFC38BF49004FEA2C1C02F5FA02E2
:102540000CFB0EF34FEACE1E4FEA112C4FEAC121CD
:102550000EEB635E42EB22420EFB0CFC4FEA1C5377
:1025600000FB03114FEA112C4FEA01310EFB0CFC6A
:102570004FEADC4C00FB0C11C14228BF09184CEBA0
:1025800003335DF804EB10EB410143EBC250B2F5AD
:102590007C0F38BF704729D512F0F00F1CBF00F137
:1025A000C04000F0004070470081828384858687A8
:1025B00088898B8C8D8E8F919293959697999A9C02
:1025C0009D9FA0A2A3A5A7A8AAACAEB0B2B3B5B771
:1025D000B9BCBEC0C2C5C7C9CCCED1D4D7D9DCDF47
:1025E000E2E6E9ECF0F3F7FAFE0000004FEA400CF7
:1025F0000CF1807CBCF17E4F28BF7047B0F1C04029
:1026000000F03FB990EA010F0CEAD11348BF42F441
:102610008072624538BF634507D213F47F0F16D02E
:1026200080EA010000F00040704710B500F0E3F8C8
:10263000097EFC3E00F005B880EA010000F0004091
:10264000704780EA010000F0004000F01AB912F46F
:102650007F0F04BF0248704780EA010000F011B903
:102660000000C07FB0FA80F310FA03F2C3F19D03BB
:102670000AD0D90501EB1220530638BF704700F18C
:10268000010008BF20F001007047000050EA010C73
:1026900000F113801CF5000F58BFBCF5000F01D4EA
:1026A0008842704707D710F5000F58BF11F5000F8B
:1026B00015D488427047894270471CF5000F04D535
:1026C000BCF5000FF7D5814270474FF0807C1CEBC2
:1026D000400F38BF1CEB410F01D28142704710B54B
:1026E00000F089F8922449004FF000504FF08051DB
:1026F000FFF7EABE4FF47F0C1CEAD0121EBF1CEAA3
:10270000D11392EA0C0F93EA0C0F00F0478090EA85
:10271000010F48BF42F480724FF0004C4CEA002099
:102720004CEA012102EB0302A0FB0113A2F5000217
:10273000002918BF43F001035B0028BF4FEA3303B1
:1027400042EB22425FEA132C4CEBC2502EBFBCEB93
:10275000436FB2F57C0F70474FEA036CBCF1004F3A
:1027600008BF20F00100B2F57C0F38BF70470BD5D1
:1027700082F0FF0212F5803FC8BF704700F1C040F1
:10278000D8BF00F00040704700F5000C5FEA4C0C29
:1027900048BF7047B0F1C04000F073B890EA010F35
:1027A0000CEAD11348BF42F48072624538BF6345DA
:1027B00004D280EA010000F00040704710B500F03C
:1027C0001AF800BF8900013E00F007B800F009B810
:1027D0005FEA410C5FEA1C6C08D080EA010000F05F
:1027E00050B85FEA400C5FEA1C6CF6D14FF0004035
:1027F000A0F5800070470EF1020E2EF0030E5EF879
:10280000044B244204D44FEA4102B2F17F4F11D865
:102810004FEA4003B3F17F4F0CD80ED14FEAD07C82
:10282000B2F17F4F0CEB4C0C0CF1020C08BF4CEBDF
:10283000D17C04E04FF0080C01E04FEAD17C0CEBB6
:102840004C0324FA03F404F00704B4F1040C06D298
:102850000EEB840CBDE810404CF0010C6047DFE843
:102860000CF0070802024FF00040A0F5800010BDF8
:102870000846420018BFD2F1807288BF00F00040C5
:1028800010BDFF2141EAD050C005704751EA000C4D
:1028900000F113801CF5000F58BFBCF5000F01D4E8
:1028A0008142704707D711F5000F58BF10F5000F90
:1028B00015D481427047894270471CF5000F04D53A
:1028C000BCF5000FF7D5884270474FF0807C1CEBB9
:1028D000410F38BF1CEB400F01D28842704780EA9D
:1028E000010081EA000180EA0100FFF7F8BE000064
:1028F0001029000800000020380000006C010008CA
:1029000048290008380000208009000088010008DC
:102910000000000001020304010203040607080985
:102920000204060801000000000000000100000091
:102930000000000000000000000000000000000097
:0829400000000000000000008F
:0400000508000131BD
:00000001FF
