Component: ARM Compiler 5.06 update 7 (build 960) Tool: armlink [4d3601]

==============================================================================

Section Cross References

    main.o(i.main) refers to key.o(i.KEY_Init) for KEY_Init
    main.o(i.main) refers to usart.o(i.Motor) for Motor
    main.o(i.main) refers to misc.o(i.NVIC_PriorityGroupConfig) for NVIC_PriorityGroupConfig
    main.o(i.main) refers to exti.o(i.EXTI4_Init) for EXTI4_Init
    main.o(i.main) refers to stm32f10x_tim.o(i.TIM_SetCompare4) for TIM_SetCompare4
    main.o(i.main) refers to pwm.o(i.TIM4_PWM_Init) for TIM4_PWM_Init
    main.o(i.main) refers to exti.o(i.EXTI3_Init) for EXTI3_Init
    main.o(i.main) refers to pwm.o(i.TIM3_PWM_Init) for TIM3_PWM_Init
    main.o(i.main) refers to led.o(i.LEDInit) for LEDInit
    main.o(i.main) refers to stm32f10x_gpio.o(i.GPIO_SetBits) for GPIO_SetBits
    main.o(i.main) refers to key.o(i.KEY_Scan) for KEY_Scan
    main.o(i.main) refers to usart.o(i.buletooth2) for buletooth2
    main.o(i.main) refers to stm32f10x_gpio.o(i.GPIO_ResetBits) for GPIO_ResetBits
    main.o(i.main) refers to usart.o(i.buletooth) for buletooth
    main.o(i.main) refers to tracer.o(i.Trace_Gpio_Init) for Trace_Gpio_Init
    main.o(i.main) refers to tracer.o(i.Trace_Control) for Trace_Control
    main.o(i.main) refers to distance2.o(i.HCSR04_Init) for HCSR04_Init
    main.o(i.main) refers to timer.o(i.Basic_TIM6_ms_Init) for Basic_TIM6_ms_Init
==============================================================================

Removing Unused input sections from the image.

    Removing core_cm3.o(.emb_text), (32 bytes).
    Removing system_stm32f10x.o(i.SystemCoreClockUpdate), (164 bytes).
    Removing system_stm32f10x.o(.data), (20 bytes).
    Removing misc.o(i.NVIC_SetVectorTable), (20 bytes).
    Removing misc.o(i.NVIC_SystemLPConfig), (32 bytes).
    Removing misc.o(i.SysTick_CLKSourceConfig), (40 bytes).
    Removing stm32f10x_gpio.o(i.GPIO_AFIODeInit), (20 bytes).
    Removing stm32f10x_gpio.o(i.GPIO_DeInit), (200 bytes).
    Removing stm32f10x_gpio.o(i.GPIO_ETH_MediaInterfaceConfig), (12 bytes).
    Removing stm32f10x_gpio.o(i.GPIO_EventOutputCmd), (12 bytes).
    Removing stm32f10x_gpio.o(i.GPIO_EventOutputConfig), (32 bytes).
    Removing stm32f10x_gpio.o(i.GPIO_PinLockConfig), (18 bytes).
    Removing stm32f10x_gpio.o(i.GPIO_PinRemapConfig), (144 bytes).
    Removing stm32f10x_gpio.o(i.GPIO_ReadInputData), (8 bytes).
    Removing stm32f10x_gpio.o(i.GPIO_ReadOutputData), (8 bytes).
    Removing stm32f10x_gpio.o(i.GPIO_ReadOutputDataBit), (18 bytes).
    Removing stm32f10x_gpio.o(i.GPIO_StructInit), (16 bytes).
    Removing stm32f10x_gpio.o(i.GPIO_Write), (4 bytes).
==============================================================================

Image Symbol Table

    Local Symbols

    Symbol Name                              Value     Ov Type        Size  Object(Section)

    ../clib/angel/boardlib.s                 0x00000000   Number         0  boardinit3.o ABSOLUTE
    ../clib/angel/boardlib.s                 0x00000000   Number         0  boardshut.o ABSOLUTE
    ../clib/angel/boardlib.s                 0x00000000   Number         0  boardinit2.o ABSOLUTE
    ../clib/angel/boardlib.s                 0x00000000   Number         0  boardinit1.o ABSOLUTE
    ../clib/angel/handlers.s                 0x00000000   Number         0  __scatter_zi.o ABSOLUTE
    ../clib/angel/handlers.s                 0x00000000   Number         0  __scatter_copy.o ABSOLUTE
    ../clib/angel/kernel.s                   0x00000000   Number         0  __rtentry.o ABSOLUTE
    ../clib/angel/kernel.s                   0x00000000   Number         0  rtexit.o ABSOLUTE
    ../clib/angel/kernel.s                   0x00000000   Number         0  __rtentry4.o ABSOLUTE
    ../clib/angel/kernel.s                   0x00000000   Number         0  __rtentry2.o ABSOLUTE
    ../clib/angel/kernel.s                   0x00000000   Number         0  rtexit2.o ABSOLUTE
    ../clib/angel/rt.s                       0x00000000   Number         0  rt_raise.o ABSOLUTE
    ../clib/angel/scatter.s                  0x00000000   Number         0  __scatter.o ABSOLUTE
    ../clib/angel/startup.s                  0x00000000   Number         0  __main.o ABSOLUTE
    ../clib/angel/sys.s                      0x00000000   Number         0  libspace.o ABSOLUTE
    ../clib/angel/sys.s                      0x00000000   Number         0  indicate_semi.o ABSOLUTE
    ../clib/angel/sys.s                      0x00000000   Number         0  use_no_semi.o ABSOLUTE
    ../clib/angel/sys.s                      0x00000000   Number         0  sys_stackheap_outer.o ABSOLUTE
    ../clib/angel/sysapp.c                   0x00000000   Number         0  sys_command.o ABSOLUTE
    ../clib/angel/sysapp.c                   0x00000000   Number         0  sys_wrch.o ABSOLUTE
    ../clib/angel/sysapp.c                   0x00000000   Number         0  sys_exit.o ABSOLUTE
    ../clib/armsys.c                         0x00000000   Number         0  _get_argv_nomalloc.o ABSOLUTE
    ../clib/armsys.c                         0x00000000   Number         0  no_argv.o ABSOLUTE
    ../clib/armsys.c                         0x00000000   Number         0  argv_veneer.o ABSOLUTE
    ../clib/armsys.c                         0x00000000   Number         0  argv_veneer.o ABSOLUTE
    ../clib/heapalloc.c                      0x00000000   Number         0  hrguard.o ABSOLUTE
    ../clib/heapaux.c                        0x00000000   Number         0  heapauxi.o ABSOLUTE
    ../clib/libinit.s                        0x00000000   Number         0  libshutdown.o ABSOLUTE
    ../clib/libinit.s                        0x00000000   Number         0  libinit2.o ABSOLUTE
    ../clib/libinit.s                        0x00000000   Number         0  libinit.o ABSOLUTE
    ../clib/libinit.s                        0x00000000   Number         0  libshutdown2.o ABSOLUTE
    ../clib/signal.c                         0x00000000   Number         0  defsig_abrt_inner.o ABSOLUTE
    ../clib/signal.c                         0x00000000   Number         0  defsig_rtred_inner.o ABSOLUTE
    ../clib/signal.c                         0x00000000   Number         0  defsig_stak_inner.o ABSOLUTE
    ../clib/signal.c                         0x00000000   Number         0  defsig_fpe_inner.o ABSOLUTE
    ../clib/signal.c                         0x00000000   Number         0  defsig_pvfn_inner.o ABSOLUTE
    ../clib/signal.c                         0x00000000   Number         0  defsig_cppl_inner.o ABSOLUTE
    ../clib/signal.c                         0x00000000   Number         0  defsig_segv_inner.o ABSOLUTE
    ../clib/signal.c                         0x00000000   Number         0  defsig_other.o ABSOLUTE
    ../clib/signal.c                         0x00000000   Number         0  defsig_rtmem_formal.o ABSOLUTE
    ../clib/signal.c                         0x00000000   Number         0  defsig_rtmem_outer.o ABSOLUTE
    ../clib/signal.c                         0x00000000   Number         0  defsig_rtmem_inner.o ABSOLUTE
    ../clib/signal.c                         0x00000000   Number         0  __raise.o ABSOLUTE
    ../clib/signal.c                         0x00000000   Number         0  defsig_general.o ABSOLUTE
    ../clib/signal.c                         0x00000000   Number         0  defsig_exit.o ABSOLUTE
    ../clib/signal.s                         0x00000000   Number         0  defsig.o ABSOLUTE
    ../clib/stdlib.c                         0x00000000   Number         0  exit.o ABSOLUTE
    ../fplib/fcmpi.s                         0x00000000   Number         0  fcmpi.o ABSOLUTE
    ../fplib/fdiv.s                          0x00000000   Number         0  fdiv.o ABSOLUTE
    ../fplib/fflt.s                          0x00000000   Number         0  fflt_clz.o ABSOLUTE
    ../fplib/fleqf.s                         0x00000000   Number         0  fleqf.o ABSOLUTE
    ../fplib/fmul.s                          0x00000000   Number         0  fmul.o ABSOLUTE
    ../fplib/fnaninf.s                       0x00000000   Number         0  fnaninf.o ABSOLUTE
    ../fplib/fpinit.s                        0x00000000   Number         0  fpinit.o ABSOLUTE
    ../fplib/fretinf.s                       0x00000000   Number         0  fretinf.o ABSOLUTE
    ../fplib/frleqf.s                        0x00000000   Number         0  frleqf.o ABSOLUTE
    ../fplib/usenofp.s                       0x00000000   Number         0  usenofp.o ABSOLUTE
    ..\APP\control\control.c                 0x00000000   Number         0  control.o ABSOLUTE
    ..\APP\delay\delay.c                     0x00000000   Number         0  delay.o ABSOLUTE
    ..\APP\distance\distance2.c              0x00000000   Number         0  distance2.o ABSOLUTE
    ..\APP\exit\exti.c                       0x00000000   Number         0  exti.o ABSOLUTE
    ..\APP\key\key.c                         0x00000000   Number         0  key.o ABSOLUTE
    ..\APP\led\led.c                         0x00000000   Number         0  led.o ABSOLUTE
    ..\APP\pwm\pwm.c                         0x00000000   Number         0  pwm.o ABSOLUTE
    ..\APP\timer\timer.c                     0x00000000   Number         0  timer.o ABSOLUTE
    ..\APP\tracer\tracer.c                   0x00000000   Number         0  tracer.o ABSOLUTE
    ..\APP\usart\usart.c                     0x00000000   Number         0  usart.o ABSOLUTE
    ..\\cj_F10x_lib\\core_cm3.c              0x00000000   Number         0  core_cm3.o ABSOLUTE
    ..\cj_F10x_lib\core_cm3.c                0x00000000   Number         0  core_cm3.o ABSOLUTE
    ..\cj_F10x_lib\main.c                    0x00000000   Number         0  main.o ABSOLUTE
    ..\cj_F10x_lib\src\misc.c                0x00000000   Number         0  misc.o ABSOLUTE
    ..\cj_F10x_lib\src\stm32f10x_adc.c       0x00000000   Number         0  stm32f10x_adc.o ABSOLUTE
    ..\cj_F10x_lib\src\stm32f10x_bkp.c       0x00000000   Number         0  stm32f10x_bkp.o ABSOLUTE
    ..\cj_F10x_lib\src\stm32f10x_can.c       0x00000000   Number         0  stm32f10x_can.o ABSOLUTE
    ..\cj_F10x_lib\src\stm32f10x_cec.c       0x00000000   Number         0  stm32f10x_cec.o ABSOLUTE
    ..\cj_F10x_lib\src\stm32f10x_crc.c       0x00000000   Number         0  stm32f10x_crc.o ABSOLUTE
    ..\cj_F10x_lib\src\stm32f10x_dac.c       0x00000000   Number         0  stm32f10x_dac.o ABSOLUTE
    ..\cj_F10x_lib\src\stm32f10x_dbgmcu.c    0x00000000   Number         0  stm32f10x_dbgmcu.o ABSOLUTE
    ..\cj_F10x_lib\src\stm32f10x_dma.c       0x00000000   Number         0  stm32f10x_dma.o ABSOLUTE
    ..\cj_F10x_lib\src\stm32f10x_exti.c      0x00000000   Number         0  stm32f10x_exti.o ABSOLUTE
    ..\cj_F10x_lib\src\stm32f10x_flash.c     0x00000000   Number         0  stm32f10x_flash.o ABSOLUTE
    ..\cj_F10x_lib\src\stm32f10x_fsmc.c      0x00000000   Number         0  stm32f10x_fsmc.o ABSOLUTE
    ..\cj_F10x_lib\src\stm32f10x_gpio.c      0x00000000   Number         0  stm32f10x_gpio.o ABSOLUTE
    ..\cj_F10x_lib\src\stm32f10x_i2c.c       0x00000000   Number         0  stm32f10x_i2c.o ABSOLUTE
    ..\cj_F10x_lib\src\stm32f10x_iwdg.c      0x00000000   Number         0  stm32f10x_iwdg.o ABSOLUTE
    ..\cj_F10x_lib\src\stm32f10x_pwr.c       0x00000000   Number         0  stm32f10x_pwr.o ABSOLUTE
    ..\cj_F10x_lib\src\stm32f10x_rcc.c       0x00000000   Number         0  stm32f10x_rcc.o ABSOLUTE
    ..\cj_F10x_lib\src\stm32f10x_rtc.c       0x00000000   Number         0  stm32f10x_rtc.o ABSOLUTE
    ..\cj_F10x_lib\src\stm32f10x_sdio.c      0x00000000   Number         0  stm32f10x_sdio.o ABSOLUTE
    ..\cj_F10x_lib\src\stm32f10x_spi.c       0x00000000   Number         0  stm32f10x_spi.o ABSOLUTE
    ..\cj_F10x_lib\src\stm32f10x_tim.c       0x00000000   Number         0  stm32f10x_tim.o ABSOLUTE
    ..\cj_F10x_lib\src\stm32f10x_usart.c     0x00000000   Number         0  stm32f10x_usart.o ABSOLUTE
    ..\cj_F10x_lib\src\stm32f10x_wwdg.c      0x00000000   Number         0  stm32f10x_wwdg.o ABSOLUTE
    ..\cj_F10x_lib\startup_stm32f10x_hd.s    0x00000000   Number         0  startup_stm32f10x_hd.o ABSOLUTE
    ..\cj_F10x_lib\stm32f10x_it.c            0x00000000   Number         0  stm32f10x_it.o ABSOLUTE
    ..\cj_F10x_lib\system_stm32f10x.c        0x00000000   Number         0  system_stm32f10x.o ABSOLUTE
    dc.s                                     0x00000000   Number         0  dc.o ABSOLUTE
    RESET                                    0x08000000   Section      304  startup_stm32f10x_hd.o(RESET)
    !!!main                                  0x08000130   Section        8  __main.o(!!!main)
    !!!scatter                               0x08000138   Section       52  __scatter.o(!!!scatter)
    !!handler_copy                           0x0800016c   Section       26  __scatter_copy.o(!!handler_copy)
    !!handler_zi                             0x08000188   Section       28  __scatter_zi.o(!!handler_zi)
    .ARM.Collect$$libinit$$00000000          0x080001a4   Section        2  libinit.o(.ARM.Collect$$libinit$$00000000)
    .ARM.Collect$$libinit$$00000002          0x080001a6   Section        0  libinit2.o(.ARM.Collect$$libinit$$00000002)
    .ARM.Collect$$libinit$$00000004          0x080001a6   Section        0  libinit2.o(.ARM.Collect$$libinit$$00000004)
    .ARM.Collect$$libinit$$0000000A          0x080001a6   Section        0  libinit2.o(.ARM.Collect$$libinit$$0000000A)
    .ARM.Collect$$libinit$$0000000C          0x080001a6   Section        0  libinit2.o(.ARM.Collect$$libinit$$0000000C)
    .ARM.Collect$$libinit$$0000000E          0x080001a6   Section        0  libinit2.o(.ARM.Collect$$libinit$$0000000E)
    .ARM.Collect$$libinit$$00000011          0x080001a6   Section        0  libinit2.o(.ARM.Collect$$libinit$$00000011)
    .ARM.Collect$$libinit$$00000013          0x080001a6   Section        0  libinit2.o(.ARM.Collect$$libinit$$00000013)
    .ARM.Collect$$libinit$$00000015          0x080001a6   Section        0  libinit2.o(.ARM.Collect$$libinit$$00000015)
    .ARM.Collect$$libinit$$00000017          0x080001a6   Section        0  libinit2.o(.ARM.Collect$$libinit$$00000017)
    .ARM.Collect$$libinit$$00000019          0x080001a6   Section        0  libinit2.o(.ARM.Collect$$libinit$$00000019)
    .ARM.Collect$$libinit$$0000001B          0x080001a6   Section        0  libinit2.o(.ARM.Collect$$libinit$$0000001B)
    .ARM.Collect$$libinit$$0000001D          0x080001a6   Section        0  libinit2.o(.ARM.Collect$$libinit$$0000001D)
    .ARM.Collect$$libinit$$0000001F          0x080001a6   Section        0  libinit2.o(.ARM.Collect$$libinit$$0000001F)
    .ARM.Collect$$libinit$$00000021          0x080001a6   Section        0  libinit2.o(.ARM.Collect$$libinit$$00000021)
    .ARM.Collect$$libinit$$00000023          0x080001a6   Section        0  libinit2.o(.ARM.Collect$$libinit$$00000023)
    .ARM.Collect$$libinit$$00000025          0x080001a6   Section        0  libinit2.o(.ARM.Collect$$libinit$$00000025)
    .ARM.Collect$$libinit$$0000002C          0x080001a6   Section        0  libinit2.o(.ARM.Collect$$libinit$$0000002C)
    .ARM.Collect$$libinit$$0000002E          0x080001a6   Section        0  libinit2.o(.ARM.Collect$$libinit$$0000002E)
    .ARM.Collect$$libinit$$00000030          0x080001a6   Section        0  libinit2.o(.ARM.Collect$$libinit$$00000030)
    .ARM.Collect$$libinit$$00000032          0x080001a6   Section        0  libinit2.o(.ARM.Collect$$libinit$$00000032)
    .ARM.Collect$$libinit$$00000033          0x080001a6   Section        2  libinit2.o(.ARM.Collect$$libinit$$00000033)
    .ARM.Collect$$libshutdown$$00000000      0x080001a8   Section        2  libshutdown.o(.ARM.Collect$$libshutdown$$00000000)
    .ARM.Collect$$libshutdown$$00000002      0x080001aa   Section        0  libshutdown2.o(.ARM.Collect$$libshutdown$$00000002)
    .ARM.Collect$$libshutdown$$00000004      0x080001aa   Section        0  libshutdown2.o(.ARM.Collect$$libshutdown$$00000004)
    .ARM.Collect$$libshutdown$$00000006      0x080001aa   Section        0  libshutdown2.o(.ARM.Collect$$libshutdown$$00000006)
    .ARM.Collect$$libshutdown$$00000009      0x080001aa   Section        0  libshutdown2.o(.ARM.Collect$$libshutdown$$00000009)
    .ARM.Collect$$libshutdown$$0000000C      0x080001aa   Section        0  libshutdown2.o(.ARM.Collect$$libshutdown$$0000000C)
    .ARM.Collect$$libshutdown$$0000000E      0x080001aa   Section        0  libshutdown2.o(.ARM.Collect$$libshutdown$$0000000E)
    .ARM.Collect$$libshutdown$$00000011      0x080001aa   Section        0  libshutdown2.o(.ARM.Collect$$libshutdown$$00000011)
    .ARM.Collect$$libshutdown$$00000012      0x080001aa   Section        2  libshutdown2.o(.ARM.Collect$$libshutdown$$00000012)
    .ARM.Collect$$rtentry$$00000000          0x080001ac   Section        0  __rtentry.o(.ARM.Collect$$rtentry$$00000000)
    .ARM.Collect$$rtentry$$00000002          0x080001ac   Section        0  __rtentry2.o(.ARM.Collect$$rtentry$$00000002)
    .ARM.Collect$$rtentry$$00000004          0x080001ac   Section        6  __rtentry4.o(.ARM.Collect$$rtentry$$00000004)
    .ARM.Collect$$rtentry$$00000009          0x080001b2   Section        0  __rtentry2.o(.ARM.Collect$$rtentry$$00000009)
    .ARM.Collect$$rtentry$$0000000A          0x080001b2   Section        4  __rtentry2.o(.ARM.Collect$$rtentry$$0000000A)
    .ARM.Collect$$rtentry$$0000000C          0x080001b6   Section        0  __rtentry2.o(.ARM.Collect$$rtentry$$0000000C)
    .ARM.Collect$$rtentry$$0000000D          0x080001b6   Section        8  __rtentry2.o(.ARM.Collect$$rtentry$$0000000D)
    .ARM.Collect$$rtexit$$00000000           0x080001be   Section        2  rtexit.o(.ARM.Collect$$rtexit$$00000000)
    .ARM.Collect$$rtexit$$00000002           0x080001c0   Section        0  rtexit2.o(.ARM.Collect$$rtexit$$00000002)
    .ARM.Collect$$rtexit$$00000003           0x080001c0   Section        4  rtexit2.o(.ARM.Collect$$rtexit$$00000003)
    .ARM.Collect$$rtexit$$00000004           0x080001c4   Section        6  rtexit2.o(.ARM.Collect$$rtexit$$00000004)
    .text                                    0x080001cc   Section       64  startup_stm32f10x_hd.o(.text)
    .text                                    0x0800020c   Section        0  heapauxi.o(.text)
    .text                                    0x08000212   Section       74  sys_stackheap_outer.o(.text)
    .text                                    0x0800025c   Section        0  exit.o(.text)
    .text                                    0x08000270   Section        8  libspace.o(.text)
    .text                                    0x08000278   Section        0  sys_exit.o(.text)
    .text                                    0x08000284   Section        2  use_no_semi.o(.text)
    .text                                    0x08000286   Section        0  indicate_semi.o(.text)
    i.BACK                                   0x08000288   Section        0  control.o(i.BACK)
    i.Basic_TIM6_ms_Init                     0x080002d8   Section        0  timer.o(i.Basic_TIM6_ms_Init)
    i.BusFault_Handler                       0x08000348   Section        0  stm32f10x_it.o(i.BusFault_Handler)
    i.Car_Move_Mode3                         0x0800034c   Section        0  pwm.o(i.Car_Move_Mode3)
    i.DebugMon_Handler                       0x08000424   Section        0  stm32f10x_it.o(i.DebugMon_Handler)
    i.EXTI0_IRQHandler                       0x08000426   Section        0  exti.o(i.EXTI0_IRQHandler)
    i.EXTI1_IRQHandler                       0x08000428   Section        0  exti.o(i.EXTI1_IRQHandler)
    i.EXTI2_IRQHandler                       0x0800042a   Section        0  exti.o(i.EXTI2_IRQHandler)
    i.EXTI3_IRQHandler                       0x0800042c   Section        0  exti.o(i.EXTI3_IRQHandler)
    i.EXTI3_Init                             0x08000460   Section        0  exti.o(i.EXTI3_Init)
    i.EXTI4_IRQHandler                       0x080004b8   Section        0  exti.o(i.EXTI4_IRQHandler)
    i.EXTI4_Init                             0x080004f4   Section        0  exti.o(i.EXTI4_Init)
    i.EXTI_ClearITPendingBit                 0x08000554   Section        0  stm32f10x_exti.o(i.EXTI_ClearITPendingBit)
    i.EXTI_Init                              0x08000560   Section        0  stm32f10x_exti.o(i.EXTI_Init)
    i.FullGo                                 0x080005f4   Section        0  control.o(i.FullGo)
    i.GO                                     0x08000644   Section        0  control.o(i.GO)
    i.GPIO_EXTILineConfig                    0x08000694   Section        0  stm32f10x_gpio.o(i.GPIO_EXTILineConfig)
    i.GPIO_Init                              0x080006d4   Section        0  stm32f10x_gpio.o(i.GPIO_Init)
    i.GPIO_ReadInputDataBit                  0x080007ea   Section        0  stm32f10x_gpio.o(i.GPIO_ReadInputDataBit)
    i.GPIO_ResetBits                         0x080007fc   Section        0  stm32f10x_gpio.o(i.GPIO_ResetBits)
    i.GPIO_SetBits                           0x08000800   Section        0  stm32f10x_gpio.o(i.GPIO_SetBits)
    i.HCSR04_Init                            0x08000804   Section        0  distance2.o(i.HCSR04_Init)
    i.HCSR04_TRIG_Send                       0x080008e4   Section        0  distance2.o(i.HCSR04_TRIG_Send)
    i.HardFault_Handler                      0x08000908   Section        0  stm32f10x_it.o(i.HardFault_Handler)
    i.KEY_Init                               0x0800090c   Section        0  key.o(i.KEY_Init)
    i.KEY_Scan                               0x08000948   Section        0  key.o(i.KEY_Scan)
    i.LEDInit                                0x08000a10   Section        0  led.o(i.LEDInit)
    i.Left                                   0x08000a58   Section        0  control.o(i.Left)
    i.MemManage_Handler                      0x08000a88   Section        0  stm32f10x_it.o(i.MemManage_Handler)
    i.Motor                                  0x08000a8c   Section        0  usart.o(i.Motor)
    i.NMI_Handler                            0x08000ac4   Section        0  stm32f10x_it.o(i.NMI_Handler)
    i.NVIC_Init                              0x08000ac8   Section        0  misc.o(i.NVIC_Init)
    i.NVIC_PriorityGroupConfig               0x08000b38   Section        0  misc.o(i.NVIC_PriorityGroupConfig)
    i.PendSV_Handler                         0x08000b4c   Section        0  stm32f10x_it.o(i.PendSV_Handler)
    i.RCC_APB1PeriphClockCmd                 0x08000b50   Section        0  stm32f10x_rcc.o(i.RCC_APB1PeriphClockCmd)
    i.RCC_APB1PeriphResetCmd                 0x08000b70   Section        0  stm32f10x_rcc.o(i.RCC_APB1PeriphResetCmd)
    i.RCC_APB2PeriphClockCmd                 0x08000b90   Section        0  stm32f10x_rcc.o(i.RCC_APB2PeriphClockCmd)
    i.RCC_APB2PeriphResetCmd                 0x08000bb0   Section        0  stm32f10x_rcc.o(i.RCC_APB2PeriphResetCmd)
    i.RCC_GetClocksFreq                      0x08000bd0   Section        0  stm32f10x_rcc.o(i.RCC_GetClocksFreq)
    i.Reflash_Distance                       0x08000ca4   Section        0  distance2.o(i.Reflash_Distance)
    i.Right                                  0x08000d00   Section        0  control.o(i.Right)
    i.SVC_Handler                            0x08000d30   Section        0  stm32f10x_it.o(i.SVC_Handler)
    i.SetSysClock                            0x08000d32   Section        0  system_stm32f10x.o(i.SetSysClock)
    SetSysClock                              0x08000d33   Thumb Code     8  system_stm32f10x.o(i.SetSysClock)
    i.SetSysClockTo72                        0x08000d3c   Section        0  system_stm32f10x.o(i.SetSysClockTo72)
    SetSysClockTo72                          0x08000d3d   Thumb Code   214  system_stm32f10x.o(i.SetSysClockTo72)
    i.Stop                                   0x08000e1c   Section        0  control.o(i.Stop)
    i.SysTick_Handler                        0x08000e4c   Section        0  stm32f10x_it.o(i.SysTick_Handler)
    i.SystemInit                             0x08000e50   Section        0  system_stm32f10x.o(i.SystemInit)
    i.TI1_Config                             0x08000eb0   Section        0  stm32f10x_tim.o(i.TI1_Config)
    TI1_Config                               0x08000eb1   Thumb Code   108  stm32f10x_tim.o(i.TI1_Config)
    i.TI2_Config                             0x08000f30   Section        0  stm32f10x_tim.o(i.TI2_Config)
    TI2_Config                               0x08000f31   Thumb Code   130  stm32f10x_tim.o(i.TI2_Config)
    i.TI3_Config                             0x08000fc8   Section        0  stm32f10x_tim.o(i.TI3_Config)
    TI3_Config                               0x08000fc9   Thumb Code   122  stm32f10x_tim.o(i.TI3_Config)
    i.TI4_Config                             0x08001058   Section        0  stm32f10x_tim.o(i.TI4_Config)
    TI4_Config                               0x08001059   Thumb Code   130  stm32f10x_tim.o(i.TI4_Config)
    i.TIM3_PWM_Init                          0x080010f0   Section        0  pwm.o(i.TIM3_PWM_Init)
    i.TIM4_PWM_Init                          0x08001190   Section        0  pwm.o(i.TIM4_PWM_Init)
    i.TIM5_IRQHandler                        0x08001224   Section        0  distance2.o(i.TIM5_IRQHandler)
    i.TIM6_IRQHandler                        0x080012e4   Section        0  timer.o(i.TIM6_IRQHandler)
    i.TIM_ClearFlag                          0x08001320   Section        0  stm32f10x_tim.o(i.TIM_ClearFlag)
    i.TIM_ClearITPendingBit                  0x08001326   Section        0  stm32f10x_tim.o(i.TIM_ClearITPendingBit)
    i.TIM_Cmd                                0x0800132c   Section        0  stm32f10x_tim.o(i.TIM_Cmd)
    i.TIM_DeInit                             0x08001344   Section        0  stm32f10x_tim.o(i.TIM_DeInit)
    i.TIM_GetCapture2                        0x0800152c   Section        0  stm32f10x_tim.o(i.TIM_GetCapture2)
    i.TIM_GetITStatus                        0x08001532   Section        0  stm32f10x_tim.o(i.TIM_GetITStatus)
    i.TIM_ICInit                             0x08001554   Section        0  stm32f10x_tim.o(i.TIM_ICInit)
    i.TIM_ITConfig                           0x08001600   Section        0  stm32f10x_tim.o(i.TIM_ITConfig)
    i.TIM_OC2PolarityConfig                  0x08001612   Section        0  stm32f10x_tim.o(i.TIM_OC2PolarityConfig)
    i.TIM_OC3Init                            0x0800162c   Section        0  stm32f10x_tim.o(i.TIM_OC3Init)
    i.TIM_OC3PreloadConfig                   0x080016cc   Section        0  stm32f10x_tim.o(i.TIM_OC3PreloadConfig)
    i.TIM_OC4Init                            0x080016e0   Section        0  stm32f10x_tim.o(i.TIM_OC4Init)
    i.TIM_OC4PreloadConfig                   0x0800175c   Section        0  stm32f10x_tim.o(i.TIM_OC4PreloadConfig)
    i.TIM_SetCompare3                        0x08001776   Section        0  stm32f10x_tim.o(i.TIM_SetCompare3)
    i.TIM_SetCompare4                        0x0800177a   Section        0  stm32f10x_tim.o(i.TIM_SetCompare4)
    i.TIM_SetCounter                         0x08001780   Section        0  stm32f10x_tim.o(i.TIM_SetCounter)
    i.TIM_SetIC1Prescaler                    0x08001784   Section        0  stm32f10x_tim.o(i.TIM_SetIC1Prescaler)
    i.TIM_SetIC2Prescaler                    0x08001796   Section        0  stm32f10x_tim.o(i.TIM_SetIC2Prescaler)
    i.TIM_SetIC3Prescaler                    0x080017b0   Section        0  stm32f10x_tim.o(i.TIM_SetIC3Prescaler)
    i.TIM_SetIC4Prescaler                    0x080017c2   Section        0  stm32f10x_tim.o(i.TIM_SetIC4Prescaler)
    i.TIM_TimeBaseInit                       0x080017dc   Section        0  stm32f10x_tim.o(i.TIM_TimeBaseInit)
    i.Trace_Control                          0x08001880   Section        0  tracer.o(i.Trace_Control)
    i.Trace_Gpio_Init                        0x080018d0   Section        0  tracer.o(i.Trace_Gpio_Init)
    i.Trace_getCondition                     0x08001904   Section        0  tracer.o(i.Trace_getCondition)
    i.USART1_IRQHandler                      0x08001c10   Section        0  usart.o(i.USART1_IRQHandler)
    i.USART2_IRQHandler                      0x08001c64   Section        0  usart.o(i.USART2_IRQHandler)
    i.USART3_IRQHandler                      0x08001d3c   Section        0  usart.o(i.USART3_IRQHandler)
    i.USART_ClearFlag                        0x08001e38   Section        0  stm32f10x_usart.o(i.USART_ClearFlag)
    i.USART_Cmd                              0x08001e4a   Section        0  stm32f10x_usart.o(i.USART_Cmd)
    i.USART_DeInit                           0x08001e64   Section        0  stm32f10x_usart.o(i.USART_DeInit)
    i.USART_GetFlagStatus                    0x08001f00   Section        0  stm32f10x_usart.o(i.USART_GetFlagStatus)
    i.USART_GetITStatus                      0x08001f1a   Section        0  stm32f10x_usart.o(i.USART_GetITStatus)
    i.USART_ITConfig                         0x08001f6e   Section        0  stm32f10x_usart.o(i.USART_ITConfig)
    i.USART_Init                             0x08001fb8   Section        0  stm32f10x_usart.o(i.USART_Init)
    i.USART_ReceiveData                      0x08002090   Section        0  stm32f10x_usart.o(i.USART_ReceiveData)
    i.USART_SendData                         0x0800209a   Section        0  stm32f10x_usart.o(i.USART_SendData)
    i.UsageFault_Handler                     0x080020a2   Section        0  stm32f10x_it.o(i.UsageFault_Handler)
    i.Usart1_Init                            0x080020a8   Section        0  usart.o(i.Usart1_Init)
    i.Usart2_Init                            0x0800217c   Section        0  usart.o(i.Usart2_Init)
    i.Usart3_Init                            0x0800224c   Section        0  usart.o(i.Usart3_Init)
    i.buletooth                              0x08002308   Section        0  usart.o(i.buletooth)
    i.buletooth2                             0x0800232a   Section        0  usart.o(i.buletooth2)
    i.delay_ms                               0x0800234c   Section        0  delay.o(i.delay_ms)
    i.delay_us                               0x08002384   Section        0  delay.o(i.delay_us)
    i.main                                   0x080023bc   Section        0  main.o(i.main)
    x$fpl$fcmpinf                            0x080024c8   Section       24  fcmpi.o(x$fpl$fcmpinf)
    x$fpl$fdiv                               0x080024e0   Section      388  fdiv.o(x$fpl$fdiv)
    _fdiv1                                   0x080024e1   Thumb Code     0  fdiv.o(x$fpl$fdiv)
    x$fpl$ffltu                              0x08002664   Section       38  fflt_clz.o(x$fpl$ffltu)
    x$fpl$fleqf                              0x0800268c   Section      104  fleqf.o(x$fpl$fleqf)
    x$fpl$fmul                               0x080026f4   Section      258  fmul.o(x$fpl$fmul)
    x$fpl$fnaninf                            0x080027f6   Section      140  fnaninf.o(x$fpl$fnaninf)
    x$fpl$fretinf                            0x08002882   Section       10  fretinf.o(x$fpl$fretinf)
    x$fpl$frleqf                             0x0800288c   Section       98  frleqf.o(x$fpl$frleqf)
    x$fpl$usenofp                            0x080028ee   Section        0  usenofp.o(x$fpl$usenofp)
    .data                                    0x20000000   Section       20  stm32f10x_rcc.o(.data)
    APBAHBPrescTable                         0x20000000   Data          16  stm32f10x_rcc.o(.data)
    ADCPrescTable                            0x20000010   Data           4  stm32f10x_rcc.o(.data)
    .data                                    0x20000014   Section        1  key.o(.data)
    key_up                                   0x20000014   Data           1  key.o(.data)
    .data                                    0x20000016   Section        4  usart.o(.data)
    .data                                    0x2000001c   Section        8  exti.o(.data)
    .data                                    0x20000024   Section        4  pwm.o(.data)
    .data                                    0x20000028   Section        8  distance2.o(.data)
    .data                                    0x20000030   Section        8  timer.o(.data)
    .bss                                     0x20000038   Section      800  usart.o(.bss)
    .bss                                     0x20000358   Section       96  libspace.o(.bss)
    HEAP                                     0x200003b8   Section      512  startup_stm32f10x_hd.o(HEAP)
    Heap_Mem                                 0x200003b8   Data         512  startup_stm32f10x_hd.o(HEAP)
    STACK                                    0x200005b8   Section     1024  startup_stm32f10x_hd.o(STACK)
    Stack_Mem                                0x200005b8   Data        1024  startup_stm32f10x_hd.o(STACK)
    __initial_sp                             0x200009b8   Data           0  startup_stm32f10x_hd.o(STACK)

    Global Symbols

    Symbol Name                              Value     Ov Type        Size  Object(Section)

    BuildAttributes$$THM_ISAv4$P$D$K$B$S$PE$A:L22UL41UL21$X:L11$S22US41US21$IEEE1$IW$USESV6$~STKCKD$USESV7$~SHL$OSPACE$ROPI$EBA8$UX$STANDARDLIB$REQ8$PRES8$EABIv2 0x00000000   Number         0  anon$$obj.o ABSOLUTE
    __ARM_use_no_argv                        0x00000000   Number         0  main.o ABSOLUTE
    __ARM_exceptions_init                     - Undefined Weak Reference
    __alloca_initialize                       - Undefined Weak Reference
    __arm_fini_                               - Undefined Weak Reference
    __arm_preinit_                            - Undefined Weak Reference
    __cpp_initialize__aeabi_                  - Undefined Weak Reference
    __cxa_finalize                            - Undefined Weak Reference
    __rt_locale                               - Undefined Weak Reference
    __sigvec_lookup                           - Undefined Weak Reference
    _atexit_init                              - Undefined Weak Reference
    _call_atexit_fns                          - Undefined Weak Reference
    _clock_init                               - Undefined Weak Reference
    _fp_trap_init                             - Undefined Weak Reference
    _fp_trap_shutdown                         - Undefined Weak Reference
    _get_lc_collate                           - Undefined Weak Reference
    _get_lc_ctype                             - Undefined Weak Reference
    _get_lc_monetary                          - Undefined Weak Reference
    _get_lc_numeric                           - Undefined Weak Reference
    _get_lc_time                              - Undefined Weak Reference
    _getenv_init                              - Undefined Weak Reference
    _handle_redirection                       - Undefined Weak Reference
    _init_alloc                               - Undefined Weak Reference
    _init_user_alloc                          - Undefined Weak Reference
    _initio                                   - Undefined Weak Reference
    _rand_init                                - Undefined Weak Reference
    _signal_finish                            - Undefined Weak Reference
    _signal_init                              - Undefined Weak Reference
    _terminate_alloc                          - Undefined Weak Reference
    _terminate_user_alloc                     - Undefined Weak Reference
    _terminateio                              - Undefined Weak Reference
    __Vectors_Size                           0x00000130   Number         0  startup_stm32f10x_hd.o ABSOLUTE
    __Vectors                                0x08000000   Data           4  startup_stm32f10x_hd.o(RESET)
    __Vectors_End                            0x08000130   Data           0  startup_stm32f10x_hd.o(RESET)
    __main                                   0x08000131   Thumb Code     8  __main.o(!!!main)
    __scatterload                            0x08000139   Thumb Code     0  __scatter.o(!!!scatter)
    __scatterload_rt2                        0x08000139   Thumb Code    44  __scatter.o(!!!scatter)
    __scatterload_rt2_thumb_only             0x08000139   Thumb Code     0  __scatter.o(!!!scatter)
    __scatterload_null                       0x08000147   Thumb Code     0  __scatter.o(!!!scatter)
    __scatterload_copy                       0x0800016d   Thumb Code    26  __scatter_copy.o(!!handler_copy)
    __scatterload_zeroinit                   0x08000189   Thumb Code    28  __scatter_zi.o(!!handler_zi)
    __rt_lib_init                            0x080001a5   Thumb Code     0  libinit.o(.ARM.Collect$$libinit$$00000000)
    __rt_lib_init_alloca_1                   0x080001a7   Thumb Code     0  libinit2.o(.ARM.Collect$$libinit$$0000002E)
    __rt_lib_init_argv_1                     0x080001a7   Thumb Code     0  libinit2.o(.ARM.Collect$$libinit$$0000002C)
    __rt_lib_init_atexit_1                   0x080001a7   Thumb Code     0  libinit2.o(.ARM.Collect$$libinit$$0000001B)
    __rt_lib_init_clock_1                    0x080001a7   Thumb Code     0  libinit2.o(.ARM.Collect$$libinit$$00000021)
    __rt_lib_init_cpp_1                      0x080001a7   Thumb Code     0  libinit2.o(.ARM.Collect$$libinit$$00000032)
    __rt_lib_init_exceptions_1               0x080001a7   Thumb Code     0  libinit2.o(.ARM.Collect$$libinit$$00000030)
    __rt_lib_init_fp_1                       0x080001a7   Thumb Code     0  libinit2.o(.ARM.Collect$$libinit$$00000002)
    __rt_lib_init_fp_trap_1                  0x080001a7   Thumb Code     0  libinit2.o(.ARM.Collect$$libinit$$0000001F)
    __rt_lib_init_getenv_1                   0x080001a7   Thumb Code     0  libinit2.o(.ARM.Collect$$libinit$$00000023)
    __rt_lib_init_heap_1                     0x080001a7   Thumb Code     0  libinit2.o(.ARM.Collect$$libinit$$0000000A)
    __rt_lib_init_lc_collate_1               0x080001a7   Thumb Code     0  libinit2.o(.ARM.Collect$$libinit$$00000011)
    __rt_lib_init_lc_ctype_1                 0x080001a7   Thumb Code     0  libinit2.o(.ARM.Collect$$libinit$$00000013)
    __rt_lib_init_lc_monetary_1              0x080001a7   Thumb Code     0  libinit2.o(.ARM.Collect$$libinit$$00000015)
    __rt_lib_init_lc_numeric_1               0x080001a7   Thumb Code     0  libinit2.o(.ARM.Collect$$libinit$$00000017)
    __rt_lib_init_lc_time_1                  0x080001a7   Thumb Code     0  libinit2.o(.ARM.Collect$$libinit$$00000019)
    __rt_lib_init_preinit_1                  0x080001a7   Thumb Code     0  libinit2.o(.ARM.Collect$$libinit$$00000004)
    __rt_lib_init_rand_1                     0x080001a7   Thumb Code     0  libinit2.o(.ARM.Collect$$libinit$$0000000E)
    __rt_lib_init_return                     0x080001a7   Thumb Code     0  libinit2.o(.ARM.Collect$$libinit$$00000033)
    __rt_lib_init_signal_1                   0x080001a7   Thumb Code     0  libinit2.o(.ARM.Collect$$libinit$$0000001D)
    __rt_lib_init_stdio_1                    0x080001a7   Thumb Code     0  libinit2.o(.ARM.Collect$$libinit$$00000025)
    __rt_lib_init_user_alloc_1               0x080001a7   Thumb Code     0  libinit2.o(.ARM.Collect$$libinit$$0000000C)
    __rt_lib_shutdown                        0x080001a9   Thumb Code     0  libshutdown.o(.ARM.Collect$$libshutdown$$00000000)
    __rt_lib_shutdown_cpp_1                  0x080001ab   Thumb Code     0  libshutdown2.o(.ARM.Collect$$libshutdown$$00000004)
    __rt_lib_shutdown_fini_1                 0x080001ab   Thumb Code     0  libshutdown2.o(.ARM.Collect$$libshutdown$$00000002)
    __rt_lib_shutdown_fp_trap_1              0x080001ab   Thumb Code     0  libshutdown2.o(.ARM.Collect$$libshutdown$$00000009)
    __rt_lib_shutdown_heap_1                 0x080001ab   Thumb Code     0  libshutdown2.o(.ARM.Collect$$libshutdown$$00000011)
    __rt_lib_shutdown_return                 0x080001ab   Thumb Code     0  libshutdown2.o(.ARM.Collect$$libshutdown$$00000012)
    __rt_lib_shutdown_signal_1               0x080001ab   Thumb Code     0  libshutdown2.o(.ARM.Collect$$libshutdown$$0000000C)
    __rt_lib_shutdown_stdio_1                0x080001ab   Thumb Code     0  libshutdown2.o(.ARM.Collect$$libshutdown$$00000006)
    __rt_lib_shutdown_user_alloc_1           0x080001ab   Thumb Code     0  libshutdown2.o(.ARM.Collect$$libshutdown$$0000000E)
    __rt_entry                               0x080001ad   Thumb Code     0  __rtentry.o(.ARM.Collect$$rtentry$$00000000)
    __rt_entry_presh_1                       0x080001ad   Thumb Code     0  __rtentry2.o(.ARM.Collect$$rtentry$$00000002)
    __rt_entry_sh                            0x080001ad   Thumb Code     0  __rtentry4.o(.ARM.Collect$$rtentry$$00000004)
    __rt_entry_li                            0x080001b3   Thumb Code     0  __rtentry2.o(.ARM.Collect$$rtentry$$0000000A)
    __rt_entry_postsh_1                      0x080001b3   Thumb Code     0  __rtentry2.o(.ARM.Collect$$rtentry$$00000009)
    __rt_entry_main                          0x080001b7   Thumb Code     0  __rtentry2.o(.ARM.Collect$$rtentry$$0000000D)
    __rt_entry_postli_1                      0x080001b7   Thumb Code     0  __rtentry2.o(.ARM.Collect$$rtentry$$0000000C)
    __rt_exit                                0x080001bf   Thumb Code     0  rtexit.o(.ARM.Collect$$rtexit$$00000000)
    __rt_exit_ls                             0x080001c1   Thumb Code     0  rtexit2.o(.ARM.Collect$$rtexit$$00000003)
    __rt_exit_prels_1                        0x080001c1   Thumb Code     0  rtexit2.o(.ARM.Collect$$rtexit$$00000002)
    __rt_exit_exit                           0x080001c5   Thumb Code     0  rtexit2.o(.ARM.Collect$$rtexit$$00000004)
    Reset_Handler                            0x080001cd   Thumb Code     8  startup_stm32f10x_hd.o(.text)
    ADC1_2_IRQHandler                        0x080001e7   Thumb Code     0  startup_stm32f10x_hd.o(.text)
    ADC3_IRQHandler                          0x080001e7   Thumb Code     0  startup_stm32f10x_hd.o(.text)
    CAN1_RX1_IRQHandler                      0x080001e7   Thumb Code     0  startup_stm32f10x_hd.o(.text)
    CAN1_SCE_IRQHandler                      0x080001e7   Thumb Code     0  startup_stm32f10x_hd.o(.text)
    DMA1_Channel1_IRQHandler                 0x080001e7   Thumb Code     0  startup_stm32f10x_hd.o(.text)
    DMA1_Channel2_IRQHandler                 0x080001e7   Thumb Code     0  startup_stm32f10x_hd.o(.text)
    DMA1_Channel3_IRQHandler                 0x080001e7   Thumb Code     0  startup_stm32f10x_hd.o(.text)
    DMA1_Channel4_IRQHandler                 0x080001e7   Thumb Code     0  startup_stm32f10x_hd.o(.text)
    DMA1_Channel5_IRQHandler                 0x080001e7   Thumb Code     0  startup_stm32f10x_hd.o(.text)
    DMA1_Channel6_IRQHandler                 0x080001e7   Thumb Code     0  startup_stm32f10x_hd.o(.text)
    DMA1_Channel7_IRQHandler                 0x080001e7   Thumb Code     0  startup_stm32f10x_hd.o(.text)
    DMA2_Channel1_IRQHandler                 0x080001e7   Thumb Code     0  startup_stm32f10x_hd.o(.text)
    DMA2_Channel2_IRQHandler                 0x080001e7   Thumb Code     0  startup_stm32f10x_hd.o(.text)
    DMA2_Channel3_IRQHandler                 0x080001e7   Thumb Code     0  startup_stm32f10x_hd.o(.text)
    DMA2_Channel4_5_IRQHandler               0x080001e7   Thumb Code     0  startup_stm32f10x_hd.o(.text)
    EXTI15_10_IRQHandler                     0x080001e7   Thumb Code     0  startup_stm32f10x_hd.o(.text)
    EXTI9_5_IRQHandler                       0x080001e7   Thumb Code     0  startup_stm32f10x_hd.o(.text)
    FLASH_IRQHandler                         0x080001e7   Thumb Code     0  startup_stm32f10x_hd.o(.text)
    FSMC_IRQHandler                          0x080001e7   Thumb Code     0  startup_stm32f10x_hd.o(.text)
    I2C1_ER_IRQHandler                       0x080001e7   Thumb Code     0  startup_stm32f10x_hd.o(.text)
    I2C1_EV_IRQHandler                       0x080001e7   Thumb Code     0  startup_stm32f10x_hd.o(.text)
    I2C2_ER_IRQHandler                       0x080001e7   Thumb Code     0  startup_stm32f10x_hd.o(.text)
    I2C2_EV_IRQHandler                       0x080001e7   Thumb Code     0  startup_stm32f10x_hd.o(.text)
    PVD_IRQHandler                           0x080001e7   Thumb Code     0  startup_stm32f10x_hd.o(.text)
    RCC_IRQHandler                           0x080001e7   Thumb Code     0  startup_stm32f10x_hd.o(.text)
    RTCAlarm_IRQHandler                      0x080001e7   Thumb Code     0  startup_stm32f10x_hd.o(.text)
    RTC_IRQHandler                           0x080001e7   Thumb Code     0  startup_stm32f10x_hd.o(.text)
    SDIO_IRQHandler                          0x080001e7   Thumb Code     0  startup_stm32f10x_hd.o(.text)
    SPI1_IRQHandler                          0x080001e7   Thumb Code     0  startup_stm32f10x_hd.o(.text)
    SPI2_IRQHandler                          0x080001e7   Thumb Code     0  startup_stm32f10x_hd.o(.text)
    SPI3_IRQHandler                          0x080001e7   Thumb Code     0  startup_stm32f10x_hd.o(.text)
    TAMPER_IRQHandler                        0x080001e7   Thumb Code     0  startup_stm32f10x_hd.o(.text)
    TIM1_BRK_IRQHandler                      0x080001e7   Thumb Code     0  startup_stm32f10x_hd.o(.text)
    TIM1_CC_IRQHandler                       0x080001e7   Thumb Code     0  startup_stm32f10x_hd.o(.text)
    TIM1_TRG_COM_IRQHandler                  0x080001e7   Thumb Code     0  startup_stm32f10x_hd.o(.text)
    TIM1_UP_IRQHandler                       0x080001e7   Thumb Code     0  startup_stm32f10x_hd.o(.text)
    TIM2_IRQHandler                          0x080001e7   Thumb Code     0  startup_stm32f10x_hd.o(.text)
    TIM3_IRQHandler                          0x080001e7   Thumb Code     0  startup_stm32f10x_hd.o(.text)
    TIM4_IRQHandler                          0x080001e7   Thumb Code     0  startup_stm32f10x_hd.o(.text)
    TIM7_IRQHandler                          0x080001e7   Thumb Code     0  startup_stm32f10x_hd.o(.text)
    TIM8_BRK_IRQHandler                      0x080001e7   Thumb Code     0  startup_stm32f10x_hd.o(.text)
    TIM8_CC_IRQHandler                       0x080001e7   Thumb Code     0  startup_stm32f10x_hd.o(.text)
    TIM8_TRG_COM_IRQHandler                  0x080001e7   Thumb Code     0  startup_stm32f10x_hd.o(.text)
    TIM8_UP_IRQHandler                       0x080001e7   Thumb Code     0  startup_stm32f10x_hd.o(.text)
    UART4_IRQHandler                         0x080001e7   Thumb Code     0  startup_stm32f10x_hd.o(.text)
    UART5_IRQHandler                         0x080001e7   Thumb Code     0  startup_stm32f10x_hd.o(.text)
    USBWakeUp_IRQHandler                     0x080001e7   Thumb Code     0  startup_stm32f10x_hd.o(.text)
    USB_HP_CAN1_TX_IRQHandler                0x080001e7   Thumb Code     0  startup_stm32f10x_hd.o(.text)
    USB_LP_CAN1_RX0_IRQHandler               0x080001e7   Thumb Code     0  startup_stm32f10x_hd.o(.text)
    WWDG_IRQHandler                          0x080001e7   Thumb Code     0  startup_stm32f10x_hd.o(.text)
    __user_initial_stackheap                 0x080001e9   Thumb Code     0  startup_stm32f10x_hd.o(.text)
    __use_two_region_memory                  0x0800020d   Thumb Code     2  heapauxi.o(.text)
    __rt_heap_escrow$2region                 0x0800020f   Thumb Code     2  heapauxi.o(.text)
    __rt_heap_expand$2region                 0x08000211   Thumb Code     2  heapauxi.o(.text)
    __user_setup_stackheap                   0x08000213   Thumb Code    74  sys_stackheap_outer.o(.text)
    exit                                     0x0800025d   Thumb Code    18  exit.o(.text)
    __user_libspace                          0x08000271   Thumb Code     8  libspace.o(.text)
    __user_perproc_libspace                  0x08000271   Thumb Code     0  libspace.o(.text)
    __user_perthread_libspace                0x08000271   Thumb Code     0  libspace.o(.text)
    _sys_exit                                0x08000279   Thumb Code     8  sys_exit.o(.text)
    __I$use$semihosting                      0x08000285   Thumb Code     0  use_no_semi.o(.text)
    __use_no_semihosting_swi                 0x08000285   Thumb Code     2  use_no_semi.o(.text)
    __semihosting_library_function           0x08000287   Thumb Code     0  indicate_semi.o(.text)
    BACK                                     0x08000289   Thumb Code    64  control.o(i.BACK)
    Basic_TIM6_ms_Init                       0x080002d9   Thumb Code   106  timer.o(i.Basic_TIM6_ms_Init)
    BusFault_Handler                         0x08000349   Thumb Code     4  stm32f10x_it.o(i.BusFault_Handler)
    Car_Move_Mode3                           0x0800034d   Thumb Code   202  pwm.o(i.Car_Move_Mode3)
    DebugMon_Handler                         0x08000425   Thumb Code     2  stm32f10x_it.o(i.DebugMon_Handler)
    EXTI0_IRQHandler                         0x08000427   Thumb Code     2  exti.o(i.EXTI0_IRQHandler)
    EXTI1_IRQHandler                         0x08000429   Thumb Code     2  exti.o(i.EXTI1_IRQHandler)
    EXTI2_IRQHandler                         0x0800042b   Thumb Code     2  exti.o(i.EXTI2_IRQHandler)
    EXTI3_IRQHandler                         0x0800042d   Thumb Code    42  exti.o(i.EXTI3_IRQHandler)
    EXTI3_Init                               0x08000461   Thumb Code    88  exti.o(i.EXTI3_Init)
    EXTI4_IRQHandler                         0x080004b9   Thumb Code    52  exti.o(i.EXTI4_IRQHandler)
    EXTI4_Init                               0x080004f5   Thumb Code    94  exti.o(i.EXTI4_Init)
    EXTI_ClearITPendingBit                   0x08000555   Thumb Code     6  stm32f10x_exti.o(i.EXTI_ClearITPendingBit)
    EXTI_Init                                0x08000561   Thumb Code   142  stm32f10x_exti.o(i.EXTI_Init)
    FullGo                                   0x080005f5   Thumb Code    64  control.o(i.FullGo)
    GO                                       0x08000645   Thumb Code    64  control.o(i.GO)
    GPIO_EXTILineConfig                      0x08000695   Thumb Code    60  stm32f10x_gpio.o(i.GPIO_EXTILineConfig)
    GPIO_Init                                0x080006d5   Thumb Code   278  stm32f10x_gpio.o(i.GPIO_Init)
    GPIO_ReadInputDataBit                    0x080007eb   Thumb Code    18  stm32f10x_gpio.o(i.GPIO_ReadInputDataBit)
    GPIO_ResetBits                           0x080007fd   Thumb Code     4  stm32f10x_gpio.o(i.GPIO_ResetBits)
    GPIO_SetBits                             0x08000801   Thumb Code     4  stm32f10x_gpio.o(i.GPIO_SetBits)
    HCSR04_Init                              0x08000805   Thumb Code   210  distance2.o(i.HCSR04_Init)
    HCSR04_TRIG_Send                         0x080008e5   Thumb Code    30  distance2.o(i.HCSR04_TRIG_Send)
    HardFault_Handler                        0x08000909   Thumb Code     4  stm32f10x_it.o(i.HardFault_Handler)
    KEY_Init                                 0x0800090d   Thumb Code    52  key.o(i.KEY_Init)
    KEY_Scan                                 0x08000949   Thumb Code   188  key.o(i.KEY_Scan)
    LEDInit                                  0x08000a11   Thumb Code    62  led.o(i.LEDInit)
    Left                                     0x08000a59   Thumb Code    40  control.o(i.Left)
    MemManage_Handler                        0x08000a89   Thumb Code     4  stm32f10x_it.o(i.MemManage_Handler)
    Motor                                    0x08000a8d   Thumb Code    50  usart.o(i.Motor)
    NMI_Handler                              0x08000ac5   Thumb Code     2  stm32f10x_it.o(i.NMI_Handler)
    NVIC_Init                                0x08000ac9   Thumb Code   100  misc.o(i.NVIC_Init)
    NVIC_PriorityGroupConfig                 0x08000b39   Thumb Code    10  misc.o(i.NVIC_PriorityGroupConfig)
    PendSV_Handler                           0x08000b4d   Thumb Code     2  stm32f10x_it.o(i.PendSV_Handler)
    RCC_APB1PeriphClockCmd                   0x08000b51   Thumb Code    26  stm32f10x_rcc.o(i.RCC_APB1PeriphClockCmd)
    RCC_APB1PeriphResetCmd                   0x08000b71   Thumb Code    26  stm32f10x_rcc.o(i.RCC_APB1PeriphResetCmd)
    RCC_APB2PeriphClockCmd                   0x08000b91   Thumb Code    26  stm32f10x_rcc.o(i.RCC_APB2PeriphClockCmd)
    RCC_APB2PeriphResetCmd                   0x08000bb1   Thumb Code    26  stm32f10x_rcc.o(i.RCC_APB2PeriphResetCmd)
    RCC_GetClocksFreq                        0x08000bd1   Thumb Code   192  stm32f10x_rcc.o(i.RCC_GetClocksFreq)
    Reflash_Distance                         0x08000ca5   Thumb Code    70  distance2.o(i.Reflash_Distance)
    Right                                    0x08000d01   Thumb Code    40  control.o(i.Right)
    SVC_Handler                              0x08000d31   Thumb Code     2  stm32f10x_it.o(i.SVC_Handler)
    Stop                                     0x08000e1d   Thumb Code    40  control.o(i.Stop)
    SysTick_Handler                          0x08000e4d   Thumb Code     2  stm32f10x_it.o(i.SysTick_Handler)
    SystemInit                               0x08000e51   Thumb Code    78  system_stm32f10x.o(i.SystemInit)
    TIM3_PWM_Init                            0x080010f1   Thumb Code   152  pwm.o(i.TIM3_PWM_Init)
    TIM4_PWM_Init                            0x08001191   Thumb Code   138  pwm.o(i.TIM4_PWM_Init)
    TIM5_IRQHandler                          0x08001225   Thumb Code   178  distance2.o(i.TIM5_IRQHandler)
    TIM6_IRQHandler                          0x080012e5   Thumb Code    52  timer.o(i.TIM6_IRQHandler)
    TIM_ClearFlag                            0x08001321   Thumb Code     6  stm32f10x_tim.o(i.TIM_ClearFlag)
    TIM_ClearITPendingBit                    0x08001327   Thumb Code     6  stm32f10x_tim.o(i.TIM_ClearITPendingBit)
    TIM_Cmd                                  0x0800132d   Thumb Code    24  stm32f10x_tim.o(i.TIM_Cmd)
    TIM_DeInit                               0x08001345   Thumb Code   424  stm32f10x_tim.o(i.TIM_DeInit)
    TIM_GetCapture2                          0x0800152d   Thumb Code     6  stm32f10x_tim.o(i.TIM_GetCapture2)
    TIM_GetITStatus                          0x08001533   Thumb Code    34  stm32f10x_tim.o(i.TIM_GetITStatus)
    TIM_ICInit                               0x08001555   Thumb Code   150  stm32f10x_tim.o(i.TIM_ICInit)
    TIM_ITConfig                             0x08001601   Thumb Code    18  stm32f10x_tim.o(i.TIM_ITConfig)
    TIM_OC2PolarityConfig                    0x08001613   Thumb Code    26  stm32f10x_tim.o(i.TIM_OC2PolarityConfig)
    TIM_OC3Init                              0x0800162d   Thumb Code   150  stm32f10x_tim.o(i.TIM_OC3Init)
    TIM_OC3PreloadConfig                     0x080016cd   Thumb Code    18  stm32f10x_tim.o(i.TIM_OC3PreloadConfig)
    TIM_OC4Init                              0x080016e1   Thumb Code   114  stm32f10x_tim.o(i.TIM_OC4Init)
    TIM_OC4PreloadConfig                     0x0800175d   Thumb Code    26  stm32f10x_tim.o(i.TIM_OC4PreloadConfig)
    TIM_SetCompare3                          0x08001777   Thumb Code     4  stm32f10x_tim.o(i.TIM_SetCompare3)
    TIM_SetCompare4                          0x0800177b   Thumb Code     6  stm32f10x_tim.o(i.TIM_SetCompare4)
    TIM_SetCounter                           0x08001781   Thumb Code     4  stm32f10x_tim.o(i.TIM_SetCounter)
    TIM_SetIC1Prescaler                      0x08001785   Thumb Code    18  stm32f10x_tim.o(i.TIM_SetIC1Prescaler)
    TIM_SetIC2Prescaler                      0x08001797   Thumb Code    26  stm32f10x_tim.o(i.TIM_SetIC2Prescaler)
    TIM_SetIC3Prescaler                      0x080017b1   Thumb Code    18  stm32f10x_tim.o(i.TIM_SetIC3Prescaler)
    TIM_SetIC4Prescaler                      0x080017c3   Thumb Code    26  stm32f10x_tim.o(i.TIM_SetIC4Prescaler)
    TIM_TimeBaseInit                         0x080017dd   Thumb Code   122  stm32f10x_tim.o(i.TIM_TimeBaseInit)
    Trace_Control                            0x08001881   Thumb Code    78  tracer.o(i.Trace_Control)
    Trace_Gpio_Init                          0x080018d1   Thumb Code    46  tracer.o(i.Trace_Gpio_Init)
    Trace_getCondition                       0x08001905   Thumb Code   774  tracer.o(i.Trace_getCondition)
    USART1_IRQHandler                        0x08001c11   Thumb Code    80  usart.o(i.USART1_IRQHandler)
    USART2_IRQHandler                        0x08001c65   Thumb Code   194  usart.o(i.USART2_IRQHandler)
    USART3_IRQHandler                        0x08001d3d   Thumb Code   234  usart.o(i.USART3_IRQHandler)
    USART_ClearFlag                          0x08001e39   Thumb Code    18  stm32f10x_usart.o(i.USART_ClearFlag)
    USART_Cmd                                0x08001e4b   Thumb Code    24  stm32f10x_usart.o(i.USART_Cmd)
    USART_DeInit                             0x08001e65   Thumb Code   134  stm32f10x_usart.o(i.USART_DeInit)
    USART_GetFlagStatus                      0x08001f01   Thumb Code    26  stm32f10x_usart.o(i.USART_GetFlagStatus)
    USART_GetITStatus                        0x08001f1b   Thumb Code    84  stm32f10x_usart.o(i.USART_GetITStatus)
    USART_ITConfig                           0x08001f6f   Thumb Code    74  stm32f10x_usart.o(i.USART_ITConfig)
    USART_Init                               0x08001fb9   Thumb Code   210  stm32f10x_usart.o(i.USART_Init)
    USART_ReceiveData                        0x08002091   Thumb Code    10  stm32f10x_usart.o(i.USART_ReceiveData)
    USART_SendData                           0x0800209b   Thumb Code     8  stm32f10x_usart.o(i.USART_SendData)
    UsageFault_Handler                       0x080020a3   Thumb Code     4  stm32f10x_it.o(i.UsageFault_Handler)
    Usart1_Init                              0x080020a9   Thumb Code   202  usart.o(i.Usart1_Init)
    Usart2_Init                              0x0800217d   Thumb Code   198  usart.o(i.Usart2_Init)
    Usart3_Init                              0x0800224d   Thumb Code   180  usart.o(i.Usart3_Init)
    buletooth                                0x08002309   Thumb Code    34  usart.o(i.buletooth)
    buletooth2                               0x0800232b   Thumb Code    34  usart.o(i.buletooth2)
    delay_ms                                 0x0800234d   Thumb Code    56  delay.o(i.delay_ms)
    delay_us                                 0x08002385   Thumb Code    54  delay.o(i.delay_us)
    main                                     0x080023bd   Thumb Code   252  main.o(i.main)
    __fpl_fcmp_Inf                           0x080024c9   Thumb Code    24  fcmpi.o(x$fpl$fcmpinf)
    __aeabi_fdiv                             0x080024e1   Thumb Code     0  fdiv.o(x$fpl$fdiv)
    _fdiv                                    0x080024e1   Thumb Code   384  fdiv.o(x$fpl$fdiv)
    __aeabi_ui2f                             0x08002665   Thumb Code     0  fflt_clz.o(x$fpl$ffltu)
    _ffltu                                   0x08002665   Thumb Code    38  fflt_clz.o(x$fpl$ffltu)
    __aeabi_cfcmple                          0x0800268d   Thumb Code     0  fleqf.o(x$fpl$fleqf)
    _fcmple                                  0x0800268d   Thumb Code   104  fleqf.o(x$fpl$fleqf)
    __fpl_fcmple_InfNaN                      0x080026df   Thumb Code     0  fleqf.o(x$fpl$fleqf)
    __aeabi_fmul                             0x080026f5   Thumb Code     0  fmul.o(x$fpl$fmul)
    _fmul                                    0x080026f5   Thumb Code   258  fmul.o(x$fpl$fmul)
    __fpl_fnaninf                            0x080027f7   Thumb Code   140  fnaninf.o(x$fpl$fnaninf)
    __fpl_fretinf                            0x08002883   Thumb Code    10  fretinf.o(x$fpl$fretinf)
    __aeabi_cfrcmple                         0x0800288d   Thumb Code     0  frleqf.o(x$fpl$frleqf)
    _frcmple                                 0x0800288d   Thumb Code    98  frleqf.o(x$fpl$frleqf)
    __I$use$fp                               0x080028ee   Number         0  usenofp.o(x$fpl$usenofp)
    Region$$Table$$Base                      0x080028f0   Number         0  anon$$obj.o(Region$$Table)
    Region$$Table$$Limit                     0x08002910   Number         0  anon$$obj.o(Region$$Table)
    USART3_RX_STA                            0x20000016   Data           2  usart.o(.data)
    USART2_RX_STA                            0x20000018   Data           2  usart.o(.data)
    count                                    0x2000001c   Data           4  exti.o(.data)
    contralFlag                              0x20000020   Data           4  exti.o(.data)
    temp                                     0x20000024   Data           4  pwm.o(.data)
    TIM5CH2_CAPTURE_STA                      0x20000028   Data           2  distance2.o(.data)
    TIM5CH2_CAPTURE_VAL                      0x2000002a   Data           2  distance2.o(.data)
    distance                                 0x2000002c   Data           4  distance2.o(.data)
    time                                     0x20000030   Data           4  timer.o(.data)
    control_Timer                            0x20000034   Data           4  timer.o(.data)
    USART3_RX_BUF                            0x20000038   Data         200  usart.o(.bss)
    USART3_COPY_RX_BUF                       0x20000100   Data         200  usart.o(.bss)
    USART2_RX_BUF                            0x200001c8   Data         200  usart.o(.bss)
    USART2_COPY_RX_BUF                       0x20000290   Data         200  usart.o(.bss)
    __libspace_start                         0x20000358   Data          96  libspace.o(.bss)
    __temporary_stack_top$libspace           0x200003b8   Data           0  libspace.o(.bss)



==============================================================================

Memory Map of the image

  Image Entry point : 0x08000131

  Load Region LR_IROM1 (Base: 0x08000000, Size: 0x00002948, Max: 0x00080000, ABSOLUTE)

    Execution Region ER_IROM1 (Exec base: 0x08000000, Load base: 0x08000000, Size: 0x00002910, Max: 0x00080000, ABSOLUTE)

    Exec Addr    Load Addr    Size         Type   Attr      Idx    E Section Name        Object

    0x08000000   0x08000000   0x00000130   Data   RO          243    RESET               startup_stm32f10x_hd.o
    0x08000130   0x08000130   0x00000008   Code   RO         3778  * !!!main             c_w.l(__main.o)
    0x08000138   0x08000138   0x00000034   Code   RO         3960    !!!scatter          c_w.l(__scatter.o)
    0x0800016c   0x0800016c   0x0000001a   Code   RO         3962    !!handler_copy      c_w.l(__scatter_copy.o)
    0x08000186   0x08000186   0x00000002   PAD
    0x08000188   0x08000188   0x0000001c   Code   RO         3964    !!handler_zi        c_w.l(__scatter_zi.o)
    0x080001a4   0x080001a4   0x00000002   Code   RO         3828    .ARM.Collect$$libinit$$00000000  c_w.l(libinit.o)
    0x080001a6   0x080001a6   0x00000000   Code   RO         3835    .ARM.Collect$$libinit$$00000002  c_w.l(libinit2.o)
    0x080001a6   0x080001a6   0x00000000   Code   RO         3837    .ARM.Collect$$libinit$$00000004  c_w.l(libinit2.o)
    0x080001a6   0x080001a6   0x00000000   Code   RO         3840    .ARM.Collect$$libinit$$0000000A  c_w.l(libinit2.o)
    0x080001a6   0x080001a6   0x00000000   Code   RO         3842    .ARM.Collect$$libinit$$0000000C  c_w.l(libinit2.o)
    0x080001a6   0x080001a6   0x00000000   Code   RO         3844    .ARM.Collect$$libinit$$0000000E  c_w.l(libinit2.o)
    0x080001a6   0x080001a6   0x00000000   Code   RO         3847    .ARM.Collect$$libinit$$00000011  c_w.l(libinit2.o)
    0x080001a6   0x080001a6   0x00000000   Code   RO         3849    .ARM.Collect$$libinit$$00000013  c_w.l(libinit2.o)
    0x080001a6   0x080001a6   0x00000000   Code   RO         3851    .ARM.Collect$$libinit$$00000015  c_w.l(libinit2.o)
    0x080001a6   0x080001a6   0x00000000   Code   RO         3853    .ARM.Collect$$libinit$$00000017  c_w.l(libinit2.o)
    0x080001a6   0x080001a6   0x00000000   Code   RO         3855    .ARM.Collect$$libinit$$00000019  c_w.l(libinit2.o)
    0x080001a6   0x080001a6   0x00000000   Code   RO         3857    .ARM.Collect$$libinit$$0000001B  c_w.l(libinit2.o)
    0x080001a6   0x080001a6   0x00000000   Code   RO         3859    .ARM.Collect$$libinit$$0000001D  c_w.l(libinit2.o)
    0x080001a6   0x080001a6   0x00000000   Code   RO         3861    .ARM.Collect$$libinit$$0000001F  c_w.l(libinit2.o)
    0x080001a6   0x080001a6   0x00000000   Code   RO         3863    .ARM.Collect$$libinit$$00000021  c_w.l(libinit2.o)
    0x080001a6   0x080001a6   0x00000000   Code   RO         3865    .ARM.Collect$$libinit$$00000023  c_w.l(libinit2.o)
    0x080001a6   0x080001a6   0x00000000   Code   RO         3867    .ARM.Collect$$libinit$$00000025  c_w.l(libinit2.o)
    0x080001a6   0x080001a6   0x00000000   Code   RO         3871    .ARM.Collect$$libinit$$0000002C  c_w.l(libinit2.o)
    0x080001a6   0x080001a6   0x00000000   Code   RO         3873    .ARM.Collect$$libinit$$0000002E  c_w.l(libinit2.o)
    0x080001a6   0x080001a6   0x00000000   Code   RO         3875    .ARM.Collect$$libinit$$00000030  c_w.l(libinit2.o)
    0x080001a6   0x080001a6   0x00000000   Code   RO         3877    .ARM.Collect$$libinit$$00000032  c_w.l(libinit2.o)
    0x080001a6   0x080001a6   0x00000002   Code   RO         3878    .ARM.Collect$$libinit$$00000033  c_w.l(libinit2.o)
    0x080001a8   0x080001a8   0x00000002   Code   RO         3898    .ARM.Collect$$libshutdown$$00000000  c_w.l(libshutdown.o)
    0x080001aa   0x080001aa   0x00000000   Code   RO         3911    .ARM.Collect$$libshutdown$$00000002  c_w.l(libshutdown2.o)
    0x080001aa   0x080001aa   0x00000000   Code   RO         3913    .ARM.Collect$$libshutdown$$00000004  c_w.l(libshutdown2.o)
    0x080001aa   0x080001aa   0x00000000   Code   RO         3915    .ARM.Collect$$libshutdown$$00000006  c_w.l(libshutdown2.o)
    0x080001aa   0x080001aa   0x00000000   Code   RO         3918    .ARM.Collect$$libshutdown$$00000009  c_w.l(libshutdown2.o)
    0x080001aa   0x080001aa   0x00000000   Code   RO         3921    .ARM.Collect$$libshutdown$$0000000C  c_w.l(libshutdown2.o)
    0x080001aa   0x080001aa   0x00000000   Code   RO         3923    .ARM.Collect$$libshutdown$$0000000E  c_w.l(libshutdown2.o)
    0x080001aa   0x080001aa   0x00000000   Code   RO         3926    .ARM.Collect$$libshutdown$$00000011  c_w.l(libshutdown2.o)
    0x080001aa   0x080001aa   0x00000002   Code   RO         3927    .ARM.Collect$$libshutdown$$00000012  c_w.l(libshutdown2.o)
    0x080001ac   0x080001ac   0x00000000   Code   RO         3796    .ARM.Collect$$rtentry$$00000000  c_w.l(__rtentry.o)
    0x080001ac   0x080001ac   0x00000000   Code   RO         3805    .ARM.Collect$$rtentry$$00000002  c_w.l(__rtentry2.o)
    0x080001ac   0x080001ac   0x00000006   Code   RO         3817    .ARM.Collect$$rtentry$$00000004  c_w.l(__rtentry4.o)
    0x080001b2   0x080001b2   0x00000000   Code   RO         3807    .ARM.Collect$$rtentry$$00000009  c_w.l(__rtentry2.o)
    0x080001b2   0x080001b2   0x00000004   Code   RO         3808    .ARM.Collect$$rtentry$$0000000A  c_w.l(__rtentry2.o)
    0x080001b6   0x080001b6   0x00000000   Code   RO         3810    .ARM.Collect$$rtentry$$0000000C  c_w.l(__rtentry2.o)
    0x080001b6   0x080001b6   0x00000008   Code   RO         3811    .ARM.Collect$$rtentry$$0000000D  c_w.l(__rtentry2.o)
    0x080001be   0x080001be   0x00000002   Code   RO         3832    .ARM.Collect$$rtexit$$00000000  c_w.l(rtexit.o)
    0x080001c0   0x080001c0   0x00000000   Code   RO         3880    .ARM.Collect$$rtexit$$00000002  c_w.l(rtexit2.o)
    0x080001c0   0x080001c0   0x00000004   Code   RO         3881    .ARM.Collect$$rtexit$$00000003  c_w.l(rtexit2.o)
    0x080001c4   0x080001c4   0x00000006   Code   RO         3882    .ARM.Collect$$rtexit$$00000004  c_w.l(rtexit2.o)
    0x080001ca   0x080001ca   0x00000002   PAD
    0x080001cc   0x080001cc   0x00000040   Code   RO          244    .text               startup_stm32f10x_hd.o
    0x0800020c   0x0800020c   0x00000006   Code   RO         3776    .text               c_w.l(heapauxi.o)
    0x08000212   0x08000212   0x0000004a   Code   RO         3819    .text               c_w.l(sys_stackheap_outer.o)
    0x0800025c   0x0800025c   0x00000012   Code   RO         3821    .text               c_w.l(exit.o)
    0x0800026e   0x0800026e   0x00000002   PAD
    0x08000270   0x08000270   0x00000008   Code   RO         3829    .text               c_w.l(libspace.o)
    0x08000278   0x08000278   0x0000000c   Code   RO         3890    .text               c_w.l(sys_exit.o)
    0x08000284   0x08000284   0x00000002   Code   RO         3901    .text               c_w.l(use_no_semi.o)
    0x08000286   0x08000286   0x00000000   Code   RO         3903    .text               c_w.l(indicate_semi.o)
    0x08000286   0x08000286   0x00000002   PAD
    0x08000288   0x08000288   0x00000050   Code   RO         3448    i.BACK              control.o
    0x080002d8   0x080002d8   0x00000070   Code   RO         3753    i.Basic_TIM6_ms_Init  timer.o
    0x08000348   0x08000348   0x00000004   Code   RO          144    i.BusFault_Handler  stm32f10x_it.o
    0x0800034c   0x0800034c   0x000000d8   Code   RO         3579    i.Car_Move_Mode3    pwm.o
    0x08000424   0x08000424   0x00000002   Code   RO          145    i.DebugMon_Handler  stm32f10x_it.o
    0x08000426   0x08000426   0x00000002   Code   RO         3490    i.EXTI0_IRQHandler  exti.o
    0x08000428   0x08000428   0x00000002   Code   RO         3491    i.EXTI1_IRQHandler  exti.o
    0x0800042a   0x0800042a   0x00000002   Code   RO         3492    i.EXTI2_IRQHandler  exti.o
    0x0800042c   0x0800042c   0x00000034   Code   RO         3494    i.EXTI3_IRQHandler  exti.o
    0x08000460   0x08000460   0x00000058   Code   RO         3495    i.EXTI3_Init        exti.o
    0x080004b8   0x080004b8   0x0000003c   Code   RO         3496    i.EXTI4_IRQHandler  exti.o
    0x080004f4   0x080004f4   0x0000005e   Code   RO         3497    i.EXTI4_Init        exti.o
    0x08000552   0x08000552   0x00000002   PAD
    0x08000554   0x08000554   0x0000000c   Code   RO         1250    i.EXTI_ClearITPendingBit  stm32f10x_exti.o
    0x08000560   0x08000560   0x00000094   Code   RO         1255    i.EXTI_Init         stm32f10x_exti.o
    0x080005f4   0x080005f4   0x00000050   Code   RO         3449    i.FullGo            control.o
    0x08000644   0x08000644   0x00000050   Code   RO         3450    i.GO                control.o
    0x08000694   0x08000694   0x00000040   Code   RO          356    i.GPIO_EXTILineConfig  stm32f10x_gpio.o
    0x080006d4   0x080006d4   0x00000116   Code   RO          359    i.GPIO_Init         stm32f10x_gpio.o
    0x080007ea   0x080007ea   0x00000012   Code   RO          363    i.GPIO_ReadInputDataBit  stm32f10x_gpio.o
    0x080007fc   0x080007fc   0x00000004   Code   RO          366    i.GPIO_ResetBits    stm32f10x_gpio.o
    0x08000800   0x08000800   0x00000004   Code   RO          367    i.GPIO_SetBits      stm32f10x_gpio.o
    0x08000804   0x08000804   0x000000e0   Code   RO         3715    i.HCSR04_Init       distance2.o
    0x080008e4   0x080008e4   0x00000024   Code   RO         3716    i.HCSR04_TRIG_Send  distance2.o
    0x08000908   0x08000908   0x00000004   Code   RO          146    i.HardFault_Handler  stm32f10x_it.o
    0x0800090c   0x0800090c   0x0000003c   Code   RO         3350    i.KEY_Init          key.o
    0x08000948   0x08000948   0x000000c8   Code   RO         3351    i.KEY_Scan          key.o
    0x08000a10   0x08000a10   0x00000048   Code   RO         3553    i.LEDInit           led.o
    0x08000a58   0x08000a58   0x00000030   Code   RO         3451    i.Left              control.o
    0x08000a88   0x08000a88   0x00000004   Code   RO          147    i.MemManage_Handler  stm32f10x_it.o
    0x08000a8c   0x08000a8c   0x00000038   Code   RO         3369    i.Motor             usart.o
    0x08000ac4   0x08000ac4   0x00000002   Code   RO          148    i.NMI_Handler       stm32f10x_it.o
    0x08000ac6   0x08000ac6   0x00000002   PAD
    0x08000ac8   0x08000ac8   0x00000070   Code   RO          248    i.NVIC_Init         misc.o
    0x08000b38   0x08000b38   0x00000014   Code   RO          249    i.NVIC_PriorityGroupConfig  misc.o
    0x08000b4c   0x08000b4c   0x00000002   Code   RO          149    i.PendSV_Handler    stm32f10x_it.o
    0x08000b4e   0x08000b4e   0x00000002   PAD
    0x08000b50   0x08000b50   0x00000020   Code   RO         1917    i.RCC_APB1PeriphClockCmd  stm32f10x_rcc.o
    0x08000b70   0x08000b70   0x00000020   Code   RO         1918    i.RCC_APB1PeriphResetCmd  stm32f10x_rcc.o
    0x08000b90   0x08000b90   0x00000020   Code   RO         1919    i.RCC_APB2PeriphClockCmd  stm32f10x_rcc.o
    0x08000bb0   0x08000bb0   0x00000020   Code   RO         1920    i.RCC_APB2PeriphResetCmd  stm32f10x_rcc.o
    0x08000bd0   0x08000bd0   0x000000d4   Code   RO         1927    i.RCC_GetClocksFreq  stm32f10x_rcc.o
    0x08000ca4   0x08000ca4   0x0000005c   Code   RO         3717    i.Reflash_Distance  distance2.o
    0x08000d00   0x08000d00   0x00000030   Code   RO         3452    i.Right             control.o
    0x08000d30   0x08000d30   0x00000002   Code   RO          150    i.SVC_Handler       stm32f10x_it.o
    0x08000d32   0x08000d32   0x00000008   Code   RO          207    i.SetSysClock       system_stm32f10x.o
    0x08000d3a   0x08000d3a   0x00000002   PAD
    0x08000d3c   0x08000d3c   0x000000e0   Code   RO          208    i.SetSysClockTo72   system_stm32f10x.o
    0x08000e1c   0x08000e1c   0x00000030   Code   RO         3453    i.Stop              control.o
    0x08000e4c   0x08000e4c   0x00000002   Code   RO          151    i.SysTick_Handler   stm32f10x_it.o
    0x08000e4e   0x08000e4e   0x00000002   PAD
    0x08000e50   0x08000e50   0x00000060   Code   RO          210    i.SystemInit        system_stm32f10x.o
    0x08000eb0   0x08000eb0   0x00000080   Code   RO         2544    i.TI1_Config        stm32f10x_tim.o
    0x08000f30   0x08000f30   0x00000098   Code   RO         2545    i.TI2_Config        stm32f10x_tim.o
    0x08000fc8   0x08000fc8   0x00000090   Code   RO         2546    i.TI3_Config        stm32f10x_tim.o
    0x08001058   0x08001058   0x00000098   Code   RO         2547    i.TI4_Config        stm32f10x_tim.o
    0x080010f0   0x080010f0   0x000000a0   Code   RO         3590    i.TIM3_PWM_Init     pwm.o
    0x08001190   0x08001190   0x00000094   Code   RO         3591    i.TIM4_PWM_Init     pwm.o
    0x08001224   0x08001224   0x000000c0   Code   RO         3718    i.TIM5_IRQHandler   distance2.o
    0x080012e4   0x080012e4   0x0000003c   Code   RO         3754    i.TIM6_IRQHandler   timer.o
    0x08001320   0x08001320   0x00000006   Code   RO         2554    i.TIM_ClearFlag     stm32f10x_tim.o
    0x08001326   0x08001326   0x00000006   Code   RO         2555    i.TIM_ClearITPendingBit  stm32f10x_tim.o
    0x0800132c   0x0800132c   0x00000018   Code   RO         2560    i.TIM_Cmd           stm32f10x_tim.o
    0x08001344   0x08001344   0x000001e8   Code   RO         2565    i.TIM_DeInit        stm32f10x_tim.o
    0x0800152c   0x0800152c   0x00000006   Code   RO         2576    i.TIM_GetCapture2   stm32f10x_tim.o
    0x08001532   0x08001532   0x00000022   Code   RO         2581    i.TIM_GetITStatus   stm32f10x_tim.o
    0x08001554   0x08001554   0x000000ac   Code   RO         2583    i.TIM_ICInit        stm32f10x_tim.o
    0x08001600   0x08001600   0x00000012   Code   RO         2585    i.TIM_ITConfig      stm32f10x_tim.o
    0x08001612   0x08001612   0x0000001a   Code   RO         2596    i.TIM_OC2PolarityConfig  stm32f10x_tim.o
    0x0800162c   0x0800162c   0x000000a0   Code   RO         2599    i.TIM_OC3Init       stm32f10x_tim.o
    0x080016cc   0x080016cc   0x00000012   Code   RO         2602    i.TIM_OC3PreloadConfig  stm32f10x_tim.o
    0x080016de   0x080016de   0x00000002   PAD
    0x080016e0   0x080016e0   0x0000007c   Code   RO         2604    i.TIM_OC4Init       stm32f10x_tim.o
    0x0800175c   0x0800175c   0x0000001a   Code   RO         2606    i.TIM_OC4PreloadConfig  stm32f10x_tim.o
    0x08001776   0x08001776   0x00000004   Code   RO         2623    i.TIM_SetCompare3   stm32f10x_tim.o
    0x0800177a   0x0800177a   0x00000006   Code   RO         2624    i.TIM_SetCompare4   stm32f10x_tim.o
    0x08001780   0x08001780   0x00000004   Code   RO         2625    i.TIM_SetCounter    stm32f10x_tim.o
    0x08001784   0x08001784   0x00000012   Code   RO         2626    i.TIM_SetIC1Prescaler  stm32f10x_tim.o
    0x08001796   0x08001796   0x0000001a   Code   RO         2627    i.TIM_SetIC2Prescaler  stm32f10x_tim.o
    0x080017b0   0x080017b0   0x00000012   Code   RO         2628    i.TIM_SetIC3Prescaler  stm32f10x_tim.o
    0x080017c2   0x080017c2   0x0000001a   Code   RO         2629    i.TIM_SetIC4Prescaler  stm32f10x_tim.o
    0x080017dc   0x080017dc   0x000000a4   Code   RO         2631    i.TIM_TimeBaseInit  stm32f10x_tim.o
    0x08001880   0x08001880   0x0000004e   Code   RO         3685    i.Trace_Control     tracer.o
    0x080018ce   0x080018ce   0x00000002   PAD
    0x080018d0   0x080018d0   0x00000034   Code   RO         3686    i.Trace_Gpio_Init   tracer.o
    0x08001904   0x08001904   0x0000030c   Code   RO         3687    i.Trace_getCondition  tracer.o
    0x08001c10   0x08001c10   0x00000054   Code   RO         3371    i.USART1_IRQHandler  usart.o
    0x08001c64   0x08001c64   0x000000d8   Code   RO         3372    i.USART2_IRQHandler  usart.o
    0x08001d3c   0x08001d3c   0x000000fc   Code   RO         3373    i.USART3_IRQHandler  usart.o
    0x08001e38   0x08001e38   0x00000012   Code   RO         3095    i.USART_ClearFlag   stm32f10x_usart.o
    0x08001e4a   0x08001e4a   0x00000018   Code   RO         3099    i.USART_Cmd         stm32f10x_usart.o
    0x08001e62   0x08001e62   0x00000002   PAD
    0x08001e64   0x08001e64   0x0000009c   Code   RO         3101    i.USART_DeInit      stm32f10x_usart.o
    0x08001f00   0x08001f00   0x0000001a   Code   RO         3102    i.USART_GetFlagStatus  stm32f10x_usart.o
    0x08001f1a   0x08001f1a   0x00000054   Code   RO         3103    i.USART_GetITStatus  stm32f10x_usart.o
    0x08001f6e   0x08001f6e   0x0000004a   Code   RO         3105    i.USART_ITConfig    stm32f10x_usart.o
    0x08001fb8   0x08001fb8   0x000000d8   Code   RO         3106    i.USART_Init        stm32f10x_usart.o
    0x08002090   0x08002090   0x0000000a   Code   RO         3113    i.USART_ReceiveData  stm32f10x_usart.o
    0x0800209a   0x0800209a   0x00000008   Code   RO         3116    i.USART_SendData    stm32f10x_usart.o
    0x080020a2   0x080020a2   0x00000004   Code   RO          152    i.UsageFault_Handler  stm32f10x_it.o
    0x080020a6   0x080020a6   0x00000002   PAD
    0x080020a8   0x080020a8   0x000000d4   Code   RO         3374    i.Usart1_Init       usart.o
    0x0800217c   0x0800217c   0x000000d0   Code   RO         3375    i.Usart2_Init       usart.o
    0x0800224c   0x0800224c   0x000000bc   Code   RO         3376    i.Usart3_Init       usart.o
    0x08002308   0x08002308   0x00000022   Code   RO         3378    i.buletooth         usart.o
    0x0800232a   0x0800232a   0x00000022   Code   RO         3379    i.buletooth2        usart.o
    0x0800234c   0x0800234c   0x00000038   Code   RO         3332    i.delay_ms          delay.o
    0x08002384   0x08002384   0x00000036   Code   RO         3333    i.delay_us          delay.o
    0x080023ba   0x080023ba   0x00000002   PAD
    0x080023bc   0x080023bc   0x0000010c   Code   RO            1    i.main              main.o
    0x080024c8   0x080024c8   0x00000018   Code   RO         3797    x$fpl$fcmpinf       fz_ws.l(fcmpi.o)
    0x080024e0   0x080024e0   0x00000184   Code   RO         3781    x$fpl$fdiv          fz_ws.l(fdiv.o)
    0x08002664   0x08002664   0x00000026   Code   RO         3784    x$fpl$ffltu         fz_ws.l(fflt_clz.o)
    0x0800268a   0x0800268a   0x00000002   PAD
    0x0800268c   0x0800268c   0x00000068   Code   RO         3790    x$fpl$fleqf         fz_ws.l(fleqf.o)
    0x080026f4   0x080026f4   0x00000102   Code   RO         3792    x$fpl$fmul          fz_ws.l(fmul.o)
    0x080027f6   0x080027f6   0x0000008c   Code   RO         3799    x$fpl$fnaninf       fz_ws.l(fnaninf.o)
    0x08002882   0x08002882   0x0000000a   Code   RO         3801    x$fpl$fretinf       fz_ws.l(fretinf.o)
    0x0800288c   0x0800288c   0x00000062   Code   RO         3794    x$fpl$frleqf        fz_ws.l(frleqf.o)
    0x080028ee   0x080028ee   0x00000000   Code   RO         3803    x$fpl$usenofp       fz_ws.l(usenofp.o)
    0x080028ee   0x080028ee   0x00000002   PAD
    0x080028f0   0x080028f0   0x00000020   Data   RO         3958    Region$$Table       anon$$obj.o


    Execution Region RW_IRAM1 (Exec base: 0x20000000, Load base: 0x08002910, Size: 0x000009b8, Max: 0x00010000, ABSOLUTE)

    Exec Addr    Load Addr    Size         Type   Attr      Idx    E Section Name        Object

    0x20000000   0x08002910   0x00000014   Data   RW         1947    .data               stm32f10x_rcc.o
    0x20000014   0x08002924   0x00000001   Data   RW         3352    .data               key.o
    0x20000015   0x08002925   0x00000001   PAD
    0x20000016   0x08002926   0x00000004   Data   RW         3381    .data               usart.o
    0x2000001a   0x0800292a   0x00000002   PAD
    0x2000001c   0x0800292c   0x00000008   Data   RW         3499    .data               exti.o
    0x20000024   0x08002934   0x00000004   Data   RW         3594    .data               pwm.o
    0x20000028   0x08002938   0x00000008   Data   RW         3719    .data               distance2.o
    0x20000030   0x08002940   0x00000008   Data   RW         3755    .data               timer.o
    0x20000038        -       0x00000320   Zero   RW         3380    .bss                usart.o
    0x20000358        -       0x00000060   Zero   RW         3830    .bss                c_w.l(libspace.o)
    0x200003b8        -       0x00000200   Zero   RW          242    HEAP                startup_stm32f10x_hd.o
    0x200005b8        -       0x00000400   Zero   RW          241    STACK               startup_stm32f10x_hd.o


==============================================================================

Image component sizes


      Code (inc. data)   RO Data    RW Data    ZI Data      Debug   Object Name

       384         72          0          0          0       2643   control.o
         0          0          0          0          0         32   core_cm3.o
       110          0          0          0          0        982   delay.o
       544         56          0          8          0       2553   distance2.o
       300         18          0          8          0       3433   exti.o
       260         20          0          1          0       1122   key.o
        72         10          0          0          0        474   led.o
       268         16          0          0          0     246835   main.o
       132         22          0          0          0      11851   misc.o
       524         32          0          4          0       2256   pwm.o
        64         26        304          0       1536        800   startup_stm32f10x_hd.o
       160         12          0          0          0       3605   stm32f10x_exti.o
       368          4          0          0          0      12502   stm32f10x_gpio.o
        26          0          0          0          0       3842   stm32f10x_it.o
       340         44          0         20          0      14156   stm32f10x_rcc.o
      1950        234          0          0          0      35933   stm32f10x_tim.o
       616         28          0          0          0      13158   stm32f10x_usart.o
       328         28          0          0          0       1869   system_stm32f10x.o
       172         14          0          8          0       1348   timer.o
       910         22          0          0          0       1999   tracer.o
      1284         78          0          4        800       6527   usart.o

    ----------------------------------------------------------------------
      8832        736        336         56       2336     367920   Object Totals
         0          0         32          0          0          0   (incl. Generated)
        20          0          0          3          0          0   (incl. Padding)

    ----------------------------------------------------------------------

      Code (inc. data)   RO Data    RW Data    ZI Data      Debug   Library Member Name

         8          0          0          0          0         68   __main.o
         0          0          0          0          0          0   __rtentry.o
        12          0          0          0          0          0   __rtentry2.o
         6          0          0          0          0          0   __rtentry4.o
        52          8          0          0          0          0   __scatter.o
        26          0          0          0          0          0   __scatter_copy.o
        28          0          0          0          0          0   __scatter_zi.o
        18          0          0          0          0         80   exit.o
         6          0          0          0          0        152   heapauxi.o
         0          0          0          0          0          0   indicate_semi.o
         2          0          0          0          0          0   libinit.o
         2          0          0          0          0          0   libinit2.o
         2          0          0          0          0          0   libshutdown.o
         2          0          0          0          0          0   libshutdown2.o
         8          4          0          0         96         68   libspace.o
         2          0          0          0          0          0   rtexit.o
        10          0          0          0          0          0   rtexit2.o
        12          4          0          0          0         68   sys_exit.o
        74          0          0          0          0         80   sys_stackheap_outer.o
         2          0          0          0          0         68   use_no_semi.o
        24          0          0          0          0         68   fcmpi.o
       388         76          0          0          0         96   fdiv.o
        38          0          0          0          0         68   fflt_clz.o
       104          4          0          0          0         84   fleqf.o
       258          4          0          0          0         84   fmul.o
       140          4          0          0          0         84   fnaninf.o
        10          0          0          0          0         68   fretinf.o
        98          0          0          0          0         68   frleqf.o
         0          0          0          0          0          0   usenofp.o

    ----------------------------------------------------------------------
      1344        104          0          0         96       1204   Library Totals
        12          0          0          0          0          0   (incl. Padding)

    ----------------------------------------------------------------------

      Code (inc. data)   RO Data    RW Data    ZI Data      Debug   Library Name

       272         16          0          0         96        584   c_w.l
      1060         88          0          0          0        620   fz_ws.l

    ----------------------------------------------------------------------
      1344        104          0          0         96       1204   Library Totals

    ----------------------------------------------------------------------

==============================================================================


      Code (inc. data)   RO Data    RW Data    ZI Data      Debug   

     10176        840        336         56       2432     363556   Grand Totals
     10176        840        336         56       2432     363556   ELF Image Totals
     10176        840        336         56          0          0   ROM Totals

==============================================================================

    Total RO  Size (Code + RO Data)                10512 (  10.27kB)
    Total RW  Size (RW Data + ZI Data)              2488 (   2.43kB)
    Total ROM Size (Code + RO Data + RW Data)      10568 (  10.32kB)

==============================================================================

